:020000040800F2
:1000000060060020D5000008F929000871180008D2
:1000100000000000000000000000000000000000E0
:10002000000000000000000000000000D12C0008CB
:100030000000000000000000E52A0008D32C0008A2
:10004000000000000000000000000000E7000008C1
:10005000E7000008E7000008E7000008E7000008E4
:100060000000000000000000000000000000000090
:10007000E7000008552D0008E70000080000000018
:1000800000000000E7000008000000000000000081
:1000900000000000092D000800000000E700000833
:1000A00000000000E700000800000000F133000835
:1000B0000000000000000000000000000000000040
:1000C0000348854600F026F9004800473903000838
:1000D000600600200448804704480047FEE7FEE72A
:1000E000FEE7FEE7FEE7FEE7DD2C0008C1000008A2
:1000F00030B50B46014600202022012409E00D46C0
:10010000D5409D4205D31D469540491B2546954047
:1001100040191546521E002DF1DC30BD03460B433D
:100120009B0703D009E008C9121F08C0042AFAD2AD
:1001300003E00B780370401C491C521EF9D2704733
:10014000D2B201E00270401C491EFBD2704700226F
:10015000F6E710B513460A4604461946FFF7F0FFC6
:10016000204610BD024670B54A40D30FDB07400061
:100170002DD04A002AD0010E140E000212020919D5
:10018000400A520A8418E50104465443000A120A40
:100190002E045043A4194219200CC543AA18120C6E
:1001A0000125AD03521C521912047F39240400D0DA
:1001B000521C104301D44000491EC2B20C06C009B3
:1001C0002018401C4008802A02D003E0002070BDA7
:1001D00040084000002900DA0020184370BD70B5C7
:1001E00002464A40D50F40004A00ED074008520839
:1001F000002814D0002A12D0C40DD30D41020120D2
:10020000C0055202490A520AE41A091812187D342C
:10021000914201D3641C00E04900002C01DA002067
:1002200070BD0023914201D3891A0343400849005D
:100230000028F7D100290AD0914202D10121C90733
:1002400005E0914201D2012101E00121C943E0050D
:10025000C018401900F01CF870BD10B5002296239C
:10026000114600F01DF810BD410040020122400A75
:10027000D205090E80187F2901DA002070479629DF
:1002800003DC9622511AC84070479639884070475F
:10029000002904DA401C490001D1400840007047A1
:1002A00070B40024050C05D11024000402D10029EB
:1002B00021D01124050E01D100020834050F01D10F
:1002C0000001241D850F01D18000A41C002801DB42
:1002D0004000641C002908D020252E1B0D46F54047
:1002E000A14000D001212943084301061B1B000A3D
:1002F000DB1D02D5002070BC7047DB051818801884
:100300000029F8DA401C4900F5D170BC40084000D3
:1003100070470000064C0125064E05E0E36807CC57
:100320002B430C3C98471034B442F7D3FFF7CCFE74
:10033000A43E0008C43E000810B50122D2060020E9
:10034000074B810054585C50401CC0B23028F8D391
:10035000012004494007886003F092F9002010BD95
:100360000000002000ED00E000B587B000200690FE
:1003700003200190064804900120059006A901A8D9
:1003800000F09CFB002801D000F0E4FA07B000BDAB
:100390000040000870B50546074C261D08E02A46B7
:1003A0002146012000F06CFC002801D1803480350A
:1003B000B442F4D370BD00000040000838B5514885
:1003C000416B012211434163416B11400091426B2B
:1003D00002210A434263426B0A400092426B202191
:1003E0000A434263406B08400090474C01221021B1
:1003F000204601F012FE00221021204601F01DFED1
:1004000002221021204601F032FE00221021204657
:1004100001F023FE3D4C01221146204601F0FDFD76
:1004200000220121204601F008FE0222012120467F
:1004300001F01DFE00220121204601F00EFE0525DF
:100440002D0701220421284601F0E7FD00220421A6
:10045000284601F0F2FD02220421284601F007FEA1
:1004600000220421284601F0F8FD01220221204645
:1004700001F0D3FD00220221204601F0DEFD022220
:100480001146204601F0F3FD00220221204601F032
:10049000E4FD01221021284601F0BFFD00221021B9
:1004A000284601F0CAFD02221021284601F0DFFD96
:1004B00000221021284601F0D0FD0122802128468B
:1004C00001F0ABFD00228021284601F0B6FD02229A
:1004D0008021284601F0CBFD00228021284601F032
:1004E000BCFD00220421204601F097FD02220421D8
:1004F000204601F0BCFD00220421204601F0ADFDA4
:1005000038BD0000001002400014005000040050EC
:1005100010B58CB01C2105A8FFF719FE002401942A
:100520000294039404940B200590FF20013008905E
:10053000099410480121008AC903C004C00C401866
:100540000A9006940B9405A800F014FE002801D030
:1005500000F000FA07200190029403940494002113
:1005600001A800F00DFD002801D000F0F3F90CB057
:1005700010BD0000000FFF1F08B5114802680121DF
:1005800049040A4302600068084000900E480D4983
:1005900001601721C1600D49416000210161816046
:1005A0004161816100F01CFF002801D000F0D2F908
:1005B000054800F038FF002801D000F0CBF908BD55
:1005C0004010024000440140F4010020E703000015
:1005D000F0B587B01848416B012529434163416B51
:1005E00029400191416B022421434163406B20402B
:1005F0000190039404950594082702970D2606960A
:10060000052002A9000700F0D5FB0297069502A974
:100610000A4800F0CFFB02950696052002A90007C4
:1006200000F0C8FB02940696052002A9000700F01E
:10063000C1FB07B0F0BD00000010024000040050F4
:1006400008B50F480D4901600E490B68CA141343E1
:100650000B600968114000917D210901C1600121F1
:1006600041600021016181604161816100F0B8FE5B
:10067000002801D000F06EF908BD0000002C0140F8
:10068000140200204010024010B50F4860210160A4
:10069000002181600161C16081614161002002F03F
:1006A00015FD002002F02AFD002002F03FFD002091
:1006B00002F054FD0448203800F0B5FE002801D0B7
:1006C00000F048F910BD00003402002010B5FFF71B
:1006D0007FFFFFF7B5FFFFF7D7FF10BDF0B587B07D
:1006E0002348416B202529434163406B28400190FA
:1006F0001F484030026869020A43026000680840EF
:10070000019002240294039401260496059408277C
:10071000069702A9174800F04DFB02960394049631
:100720000594069702A9134800F044FB134C1248A5
:10073000206013486060E801A0600020E060206154
:10074000A0610C206061204600F0C4FF002801D0A9
:1007500000F000F9094801F047F8002801D000F046
:10076000F9F82068C1682943C16007B0F0BD0000F6
:10077000001002400014005000380140B001002079
:1007800090D0030010B50A4821228178114381706E
:10079000C27801210A43C27002790A430271427988
:1007A0000A4342710348007E02F054FC10BD000071
:1007B000FC0000202C01002010B506210148FFF7A5
:1007C000C6FC10BDFC00002070B50F480121427826
:1007D0000A43427082780A43C3780B43C37003799B
:1007E0000B4344790C4301780A2529430170022107
:1007F0000A43827008210B4303710C434471034880
:10080000407F02F0C3FC70BDFC0000202C010020E2
:1008100010B50E48202104780C4382780A43C3782F
:1008200001210B43C37003790B4308210C4304706F
:100830000224224382700B43037142790A434271BE
:100840000348007F02F0A2FC10BD0000FC00002065
:100850002C01002010B50F4820230178194382781D
:100860001A43C37801242343C370037923430371DC
:100870000A2319430170417808231943417002216A
:100880000A4382704179194341710348807F02F025
:100890007DFC10BDFC0000202C0100200146322907
:1008A00001D8012070470A46333A312A01D8022084
:1008B00070470A46653A312A01D8032070470A4634
:1008C000973A312A01D8042070470A46C93A312A9A
:1008D00001D805207047FB390429FBD80620704752
:1008E00010B50B48012142780A43427082780A43CE
:1008F0008270C2780A43C27002790A430271427957
:100900000A4342710348C08802F0A4FB10BD0000F6
:10091000FC000020F400002010B50C4820220178D3
:1009200011430170427801210A43427082782123E9
:100930001A43827002790A43027142790A43427172
:100940000348C08802F086FB10BD0000FC000020B8
:10095000F4000020FEE7000005490020486005483B
:1009600041690422114341610348C1060860704790
:10097000040100200020024021433412054A0021D6
:10098000516005494A6902231A434A61FF21016007
:1009900070470000040100200020024070B50022D2
:1009A0000C4C636901252B436361EFF3108372B62E
:1009B0000125ED0408E040C940C0521CD2B21F2AF4
:1009C00002D166692E436661202AF4D383F310882E
:1009D00070BD00000020024003494A69CB141A434D
:1009E0004A61FF21016070470020024070B5044653
:1009F00000F06AFA0419084D05E000F065FAA0421B
:100A000001D3032070BD2869C043C003F5D5034856
:100A10002861002070BD000000200240118000000D
:100A200010B50E4820230178194382781A430379C0
:100A3000012423430371437923430224214301709A
:100A400041780824214341700A210A4382702343DC
:100A500043710348407E02F099FB10BDFC0000206A
:100A60002C01002010B50A482022017811430170A2
:100A70008178212211438170C27801210A43C2701A
:100A800002790A4302710348C07D02F0E3FA10BD07
:100A9000FC0000202C01002070B5044600F014FA80
:100AA0000546601C02D004484068241800F00CFA87
:100AB000401BA042FAD370BDE0000020F8B5044608
:100AC0000E46012562480178012964D00121017098
:100AD000604840680004400F5F490B6882005F482F
:100AE00082581068C7B2BC46BB4229D14B68C701C7
:100AF000FF0DBB4224D10B690004000E83421FD1BD
:100B00008B685068C7B2BB421AD1CB684001400D18
:100B1000834215D148699368DB03DB0B98420FD100
:100B20008869D368DB03DB0B984209D1CB69106974
:100B300087B2BB4204D10B6A8000800C83421ED076
:100B4000604608601068C001C00D4860108800044D
:100B5000000E08611079886050684001400DC8603F
:100B60009068C003C00B4861D068C003C00B8861A7
:100B7000108A80B2C86110698000800C08627D20F4
:100B80002168C000012908D00027FF43022915D0A1
:100B9000032935D057E00220F8BD0446FFF726FFB1
:100BA000010050D1FFF7D8FE2046FFF71FFF054692
:100BB0002B49486904229043486144E07D20C000ED
:100BC000FFF714FF00283ED13760676811E0384610
:100BD000FFF7D4FE7D20C000FFF708FF0546204840
:100BE0004169022291434161280001D037602AE027
:100BF0008037A0686168C0014018B842E7D822E099
:100C00007D20C000FFF7F2FE00281CD13760E768A6
:100C100013E03846FFF7E0FE7D20C000FFF7E6FE58
:100C200005460F484169C21491434161280001D033
:100C3000376008E0012000033F182069E1680003E5
:100C40004018B842E5D80248002101702846F8BD96
:100C50000401002000100240002102407C370008FF
:100C600000200240012005494A69C3071A434A612E
:100C70004969002900DA0020704700000020024086
:100C8000F7B50F463C4C207801285AD0012020703F
:100C90003A4840680004400F39490D6882003948DD
:100CA00080580268D3B29D4229D14D68D601F60D15
:100CB000B54224D10D691204120E95421FD18D68E0
:100CC0004268D6B2B5421AD1CD685201520D954252
:100CD00015D14A698568ED03ED0BAA420FD18A69E7
:100CE000C568ED03ED0BAA4209D1CD69026996B240
:100CF000B54204D10D6A9200920C95421DD00B6052
:100D00000268D201D20D4A6002881204120E0A61F2
:100D100002798A6042685201520DCA608268D20329
:100D2000D20B4A61C268D203D20B8A61028A92B2A4
:100D3000CA6100698000800C0862780603D0012037
:100D4000FEBD0220FEBD7D25ED002846FFF74EFECC
:100D500000280DD138460299FFF720FE2846FFF7FC
:100D600045FE09494A69520852004A610028E9D102
:100D700000212170FEBD000004010020001002408F
:100D8000002102407C370008002002400020064974
:100D90004A69002A07DA054A8A60054A8A60496971
:100DA000002900DA01207047002002402301674536
:100DB000AB89EFCDF0B500227CE001249440A4463D
:100DC0002340002B75D04C68022C01D0122C0CD182
:100DD000D408A40027183D6A5407E40E0F26A64045
:100DE000B5430E69A6402E433E62066855000324B3
:100DF000AC40A6430F79BF07BF0FAF403743076032
:100E00004E68012E05D0022E03D0112E01D0122ED5
:100E10000ED18668A643CF68AF40374387604768E6
:100E20006646B7430E79F606F60F96403E43466097
:100E3000C668A6438C68AC403443C4604C68E40088
:100E400037D595081E4CAD002F193D6E9407E40E62
:100E50000F26A640B54305263607B04201D100262D
:100E600005E0184EB04201D1012600E00226A6405E
:100E70002E43134D3E66124E803634689C434F68B5
:100E8000FF0300D51C43346074689C434F68BF0364
:100E900000D51C4374602C689C434E68F60200D554
:100EA0001C432C606C689C434E68B60200D51C4302
:100EB0006C60521C0B681C46D44000D07DE7F0BD2E
:100EC000001802400004005001488068704700008C
:100ED000E000002000680249016000207047000027
:100EE000AAAA000002488168426889188160704798
:100EF000E000002010B50024032000F009F80028CD
:100F000001D0012401E000F02BF8204610BD0000C4
:100F100070B505460024104E7168002919D07D2057
:100F2000C000FFF7E5F801460C480068FFF7E0F85D
:100F300000F03CFA002801D001240BE0042D06D279
:100F400000222946501E00F017F8356002E0012407
:100F500000E00124204670BDE0000020C000002019
:100F600070470000C106C90E012088400149086091
:100F70007047000000E100E010B501F03FFD10BD3A
:100F8000F8B504460D46002C0FD04D480068C00748
:100F9000C00FA84218D24A4F386840084000284382
:100FA0003860FFF791FF064609E00120F8BDFFF722
:100FB0008BFF811B4348814201D90320F8BD38686B
:100FC000C007C00FA842F2D120683F4E81070DD55F
:100FD000400704D5B068072109030843B060B06832
:100FE0000F2109028843A1680843B0602078C00738
:100FF0002DD06068012808D000280BD0324940313C
:10100000096A89070BD40120F8BD3168890306D429
:101010000120F8BD3168490501D40120F8BDB1684F
:10102000C908C9000143B160FFF74EFF074607E05A
:10103000FFF74AFFC11B2348814201D90320F8BDB5
:10104000B068382108406168C9008842F0D11C4866
:101050000168C907C90FA94216D9016849084900A2
:1010600029430160FFF730FF074607E0FFF72CFF39
:10107000C11B1448814201D90320F8BD1048006803
:10108000C007C00FA842F1D12078400706D5B0684C
:10109000072109038843E1680843B06000F034F891
:1010A000B1683C2289091140084A515CC906C90E41
:1010B000C8400749086007480068FFF729FFF8BDE6
:1010C000002002408813000000100240FC36000897
:1010D000C0000020E00000200148006870470000C8
:1010E000C000002000B5FFF7F7FF054989681C2202
:1010F000890A1140034A515CC906C90EC84000BDA7
:10110000001002405C37000800B585B01422164973
:101110006846FFF703F8154881688906490F0CD027
:1011200081688906490F012918D080688006400F20
:10113000032815D0002005B000BD016889044A0FBE
:101140000121914040680004400F042800D900208C
:1011500080006A461058FEF7CBFFECE70448EAE748
:101160000120C003E7E700009C37000800100240A0
:1011700000366E01F8B50446002C1DD020783827C3
:10118000C007864D002856D0A8683840082815D0DA
:101190006068002807D0A068002817D029690C22B1
:1011A00091430143296101216068090488420FD1FC
:1011B0002868084328601EE00120F8BD28688003E5
:1011C00039D56068002836D10120F8BD0120F8BD6E
:1011D000052301221B049204984206D1286810437B
:1011E000286028680843286005E02868884328604C
:1011F000286890432860606800280ED0FFF764FEDE
:10120000064606E0FFF760FE801BC82801D90320D0
:10121000F8BD28688003F5D50DE0FFF755FE0646BA
:1012200006E0FFF751FE801BC82801D90320F8BD56
:1012300028688003F5D42078800772D5AE683E40D8
:10124000002E12D0FF20E1680130002958D0296813
:101250000722D20291432269114329602968014380
:101260002960FFF731FE064640E02868400502D5B8
:10127000E068002809D068686169000C0004084330
:101280006860FFF721FE074608E00120F8BDFFF780
:101290001BFEC01B022801D90320F8BD28684005A9
:1012A000F5D5002E13D128680721C902884321698A
:1012B00008432860FFF728FFA9683C2289091140EC
:1012C000374A515CC906C90EC840364908603648DD
:1012D0000068FFF71DFE002823D00120F8BDFFF7AE
:1012E000F3FD801B022801D90320F8BD28684005C2
:1012F000F5D568686169000C00040843686010E077
:10130000296881432960FFF7DFFD064606E0FFF705
:10131000DBFD801B022801D90320F8BD28684005A9
:10132000F5D42078000736D5A8681C4D8006400FFC
:10133000403503280AD0A06900281AD0286A012164
:1013400008432862FFF7C0FD04460EE0286A8007C4
:1013500021D5A06900281ED10120F8BDFFF7B4FDFA
:10136000001B022801D90320F8BD286A8007F5D5A3
:1013700011E0286A400840002862FFF7A5FD0446F6
:1013800006E0FFF7A1FD001B022801D90320F8BDEC
:10139000286A8007F5D40020F8BD00000010024044
:1013A000FC360008C0000020E000002010B509490C
:1013B000401E884201D9012010BD074C6061032105
:1013C000081F01F01BFB0020A06107202061002006
:1013D00010BD0000FFFFFF0000E000E07047704715
:1013E00010B50446002C03D0A07F002802D006E0F0
:1013F000012010BD00206077204600F00AF802208E
:10140000A077211D206801F013FD0120A0770020A6
:1014100010BD10B5012200211520FFF7ADFD1520EC
:10142000FFF7A0FD10BD0168CB6801221343CB601C
:10143000006881684907490F062902D001681143F5
:10144000016000207047704770B50446206801694C
:101450000025C9438907002916DBC168C9438907EC
:1014600012D4E91E0161012020772068806980077D
:1014700003D02046FFF7E7FF05E0204600F099F88B
:10148000204600F002F9257720680169C943490721
:1014900018D4C168C943490714D40421C943016160
:1014A00002202077206880698005800F03D02046C5
:1014B000FFF7C9FF05E0204600F07BF8204600F06A
:1014C000E4F8257720680169C943090717D4C16882
:1014D000C943090713D40821C943016104202077B7
:1014E0002068C069800703D02046FFF7ACFF05E005
:1014F000204600F05EF8204600F0C7F82577206807
:101500000169C943C90618D4C168C943C90614D4BE
:101510001021C9430161082020772068C069800537
:10152000800F03D02046FFF78EFF05E0204600F035
:1015300040F8204600F0A9F8257720680169C943E2
:10154000C90708D1C168C943C90704D1891E01610F
:10155000204600F0BDF820680169C943090609D496
:10156000C168C943090605D48021C94301612046E9
:10157000FFF734FF20680169C943490609D4C168EF
:10158000C943490605D44021C9430161204600F002
:10159000A0F820680169C943890609D4C168C94314
:1015A000890605D42021C94301612046FFF717FFB2
:1015B00070BD7047F8B504460D46607F01280ED017
:1015C000012060770220A07704260827002A08D08F
:1015D000042A18D0082A2CD00C2A51D13BE0022032
:1015E000F8BD2946206801F05BFC20688169394319
:1015F000816120688169B1438161206881692A69BC
:10160000114381613CE02946206801F07FFC20689D
:1016100081690122D20211438161206881695210DF
:1016200091438161206881692A69120211438161B5
:1016300026E02946206801F0A5FC2068C1693943ED
:10164000C1612068C169B143C1612068C1692A696B
:101650001143C16114E02946206801F0CDFC2068E7
:10166000C1690122D2021143C1612068C1695210CF
:101670009143C1612068C1692A6912021143C161A5
:101680000120A07700206077F8BD704710B50446B0
:101690000122206801F0F6FB0B482168814202D04C
:1016A0000A48814204D1486C0122D20310434864A5
:1016B000206881684907490F062903D00168012283
:1016C00011430160002010BD002C01400044014086
:1016D0007047704770B50446002C12D02420254670
:1016E000203568772068C168012252039143C160A8
:1016F000204600F0B0F8002020646877A8772877AB
:1017000070BD012070BD7047F8B5044621680D68B2
:10171000CE6848692A07120F002A07D1AB0605D503
:10172000B30603D5204601F08DFDF8BD0027002A41
:101730003FD0C207D20FFF23213333401A4338D0A2
:10174000E90705D0F10503D5216C0122114321647D
:10175000690705D5C10703D0216C0222114321641A
:10176000A90705D5C10703D0216C042211432164C8
:10177000290705D5C00703D0206C08210843206441
:10178000206C0028D1D0A80604D5B00602D520468A
:1017900001F058FD206C000706D5204601F036FD0B
:1017A0002046FFF7B0FFF8BD2046FFF7ACFF2764E7
:1017B000F8BDE80607D5F00605D50868486800902A
:1017C000204600F010F8280605D5300603D520463F
:1017D00001F0DCFDF8BD6806FCD57006FAD52046A0
:1017E00001F023FDF8BD7047F8B50446002C06D083
:1017F00025462035687F0026002802D005E001201C
:10180000F8BD2E77204600F027F82420687720685E
:10181000C16801277F03B943C160204601F050FD34
:10182000206A002802D0204601F0D8FC2068016917
:101830000122D2029143016120684169082291434B
:1018400041612068C1683943C160266420206877FF
:10185000A8770020F8BD704710B5022200211B2098
:10186000FFF78AFB1B20FFF77DFB10BD7047704719
:10187000FEE7000010B50448FFF72CFB002801D05C
:10188000FFF768F810BD00005002002010B50221DB
:10189000024800F0B1FBC0B210BD000000040050CF
:1018A00010B505200421000700F0A6FBC0B210BD52
:1018B00010B50121024800F09FFBC0B210BD00002E
:1018C0000004005010B51021024800F095FBC0B292
:1018D00010BD00000014005070B5204C00221021F3
:1018E000204600F090FB01221021204600F0ABFBC7
:1018F0001B4C00220121204600F085FB01221146ED
:10190000204600F0A0FB05252D07002204212846D3
:1019100000F079FB01220421284600F094FB00220C
:101920000221204600F06FFB01220221204600F038
:101930008AFB00221021284600F065FB00221021BE
:10194000284600F080FB00228021284600F05BFB47
:1019500000228021284600F076FB70BD0014005064
:101960000004005010B53248FF24017863220B00B8
:1019700001F06AFE0C0D0707121A222A323B434B74
:10198000530D2C49C888012802D9401EC88010BDBB
:1019900001204002C88010BD817D002902D0491E6F
:1019A000817510BD847510BDC17D002902D0491E0E
:1019B000C17510BDC47510BD017E002902D0491E3D
:1019C000017610BD047610BD417E012902D9491E61
:1019D000417610BD427610BD817E012902D9491E93
:1019E000817610BD0821817610BD017F012902D9C1
:1019F000491E017710BD027710BD417F012902D930
:101A0000491E417710BD427710BD817F012902D95F
:101A1000491E817710BD827710BD0548203041787E
:101A2000012902D9491E417010BD0921417010BD24
:101A30002C010020F400002070B5224C224B2279AA
:101A400000251978042824D006DC00280CD00128B1
:101A50000CD0022833D114E0082822D01B4A801869
:101A600026D002282BD127E0257128E0012A26D094
:101A700001222271491CC8B218700C281FD31A7099
:101A80001DE0022A1BD002202071084600F020F839
:101A900015E0042A13D0042020710846FFF762FFE6
:101AA0000DE0082A0BD00820207101F0A9FD06E006
:101AB000084600F00DF802E00846FFF753FF658086
:101AC00070BD0000F40000202C010020FEF1FFFF9B
:101AD00010B5002401223049030001F0B5FD0C0FC0
:101AE0000707121A222A323A424A520F2B4901237F
:101AF000C8885B02984202D2401CC88010BDCA80D0
:101B000010BD887DFF2802D2401C887510BD8C75E1
:101B100010BDC87DFF2802D2401CC87510BDCC7511
:101B200010BD087EFF2802D2401C087610BD0C763E
:101B300010BD487E632802D2401C487610BD4A760C
:101B400010BD887E082802D2401C887610BD8A7697
:101B500010BD087F632802D2401C087710BD0A77A9
:101B600010BD487F632802D2401C487710BD4A77D9
:101B700010BD887F632802D2401C887710BD8A7709
:101B800010BD054820304178092902D2491C417016
:101B900010BD427010BD00002C010020F400002098
:101BA00070B53E4A1070002151803D4DFF26F5363C
:101BB0002B7BFF2813D0040011D06980AC88641CF3
:101BC000A4B2AC80B44200D9AE80022B3DD0AB8829
:101BD000082B41D0C82B44D0DC2B48D04EE06C8879
:101BE000641CA4B26C80B44200D96E806C88102C46
:101BF00053D32C4E132C24D2022B02D1EB88AB8072
:101C00002973AB88C82B06D353780324A4021B196D
:101C1000538029730AE0082B08D32B7B032B0AD0AF
:101C200053780124E4021B1953802973A9806E8024
:101C30002881517022E053780324E4021B19538059
:101C4000F3E72973A9806E8018E0AB88082B15D1C3
:101C5000507003232B7311E0508001232B735070BD
:101C60000CE005235B02C3185380507006E0C823C4
:101C7000AB8007235B02C318538050706B7B834299
:101C800005D02B7B002B02D16873A9806980508816
:101C9000002802D00149091D488070BDF0000020D5
:101CA00058010020FF0F000010B5194C20780300E8
:101CB00001F0CAFC0C27070A0D101316191C1F226D
:101CC000252700F027FB1CE000F0B4FB19E000F032
:101CD000F7FD16E000F09CFD13E000F0D3F910E0F2
:101CE00000F05EFD0DE000F0D7FD0AE000F074FAB0
:101CF00007E000F02FFA04E000F0F0FA01E000F055
:101D0000F1FD607A2073A07A6073E07AA07310BD51
:101D10002C01002010B516480078030001F094FC57
:101D20000C09070A0D101316191C1F22250900F0B3
:101D300035FB10BD00F0E2FB10BD00F0D1FD10BD81
:101D400000F076FD10BD00F0ADF910BD00F038FDDB
:101D500010BD00F0B3FD10BD00F04EFA10BD00F054
:101D600009FA10BD00F0CCFA10BD00F0CDFD10BD99
:101D70002C01002070B504469D4D2878030001F029
:101D800063FC08052E5780A9D2FDFB2D00F05AFFF9
:101D90002078002822D0800702D5002000F0E0FE45
:101DA0002078400702D5002000F0F2FE20780007DE
:101DB00002D5002000F002FF2078C00602D50020E6
:101DC00000F014FF2078800602D5002000F024FFE8
:101DD00020780028DED0012000F0AAFEF2E000F01A
:101DE00031FF60780028F9D0C00702D0002000F051
:101DF0009FFE6078400702D5002000F0C9FE6078A1
:101E0000000702D5002000F0D9FE6078C00602D598
:101E1000002000F0EBFE6078800602D5002000F084
:101E2000FBFE60780028D9D0012000F099FEC9E0BF
:101E300000F008FFA0780028D0D0C00702D0002012
:101E400000F076FEA078800702D5002000F088FE22
:101E5000A078000702D5002000F0B0FEA078C006F0
:101E600002D5002000F0C2FEA078800602D5002036
:101E700000F0D2FEA078002802D0012000F088FEF9
:101E8000A0E000F0DFFEE078002822D0C00702D0FA
:101E9000002000F04DFEE078800702D5002000F021
:101EA0005FFEE078400702D5002000F071FEE07888
:101EB000C00602D5002000F099FEE078800602D529
:101EC000002000F0A9FEE07800287BD0012000F07F
:101ED00075FE77E000F0B6FE2079002872D0C007CA
:101EE00002D0002000F024FE2079800702D50020D7
:101EF00000F036FE2079400702D5002000F048FEB1
:101F00002079000702D5002000F058FE20798006D5
:101F100002D5002000F080FE2079002852D0012058
:101F200000F064FE4EE000F08DFE6079002849D09C
:101F3000C00702D0002000F0FBFD6079800702D5C9
:101F4000002000F00DFE6079400702D5002000F06F
:101F50001FFE6079000702D5002000F02FFE607997
:101F6000C00602D5002000F041FE6079002829D08B
:101F7000012000F051FE25E003E0FFE7FFF7ACFC95
:101F800020E0FFF783FC1B4C002824D02088400869
:101F900040002080FFF784FC0221002820D0208808
:101FA00088432080FFF784FC042100281CD020886F
:101FB00088432080FFF786FC0821002816D020885F
:101FC000884320802878401CC0B22870072801D997
:101FD0000020287070BD2088012108432080D9E7A7
:101FE000208808432080DDE72180E3E72180E9E7BE
:101FF00002010020F40000200069814301D000208C
:1020000070470120704710B5036849434C000C1914
:10201000A34351430B43036010BD10B5036849430C
:102020004C000C19A34351430B43036010BD43689C
:102030008B4351430B434360704743688B43514389
:102040000B434360704710B5C36849434C000C19FB
:10205000A34351430B43C36010BD10B5C36849434C
:102060004C000C19A34351430B43C36010BD10B582
:10207000836849434C000C19A34351430B438360CD
:1020800010BD000006494878052805D00520487095
:102090000020C87288724872087EC87270470000BB
:1020A0002C01002070470000F0B5294A401AD37E69
:1020B0005B1CDBB2D376834217DB0020D07613465D
:1020C000977C5C7A9D7ADE7AFF213B0001F0BCFAB6
:1020D00006040E18222C360D51726D1CE9B2917255
:1020E000D072FF2901D301209074F0BD641EE3B2C9
:1020F00053729172D072002BF7D102209074F0BD10
:1021000050729172761CF0B2D072FF28F7D3032080
:102110009074F0BD50726D1EE8B29072D1720028BA
:10212000F7D104209074F0BD641CE3B25372907236
:10213000D172FF2BF7D305209074F0BD51729072CD
:10214000761EF1B2D1720029F7D19074F0BD000073
:102150002C01002006494878092807D0092048703A
:1021600000208874C876C872887248727047000070
:102170002C01002000B50348417F6320FFF794FF46
:1021800000BD00002C01002070B5114B114D9A7C50
:10219000540014192E5D5E72641965789D72A478DE
:1021A000DC729C8A641CA4B29C82022C0FD3002592
:1021B0009D82DC7E401A641CE4B2DC76844206DB3D
:1021C000DD76521CD0B29874072800D99D7470BD7A
:1021D0002C010020B037000806484178082908D0B3
:1021E00008214170002181748182C176C17281729F
:1021F000417270472C01002000B50348017F632025
:10220000FFF7C2FF00BD00002C010020F0B5324BEB
:10221000401ADA7E521CD2B2DA7682422CDB0021DE
:102220001846C176877C0646707A411ECBB2B17AD9
:102230004A1ED4B2F27AB68A551E761CEDB2B6B2F8
:10224000002F1AD0012F30D0022F15D1224F002895
:1022500000D07B72002900D0BC72002A00D0FD7231
:10226000BE82642E08D30020B882FC2179729D21A1
:10227000B9729A21F972B874F0BD174F002800D0D6
:102280007B72002900D0BC72002A00D0FD72BE8291
:10229000642EF1D30020B882F9207872CD20B87274
:1022A000AD20F8720120B874F0BD0B4F002800D0AB
:1022B0007B72002900D0BC72002A00D0FD72BE8261
:1022C000642EF1D30020B8827872FF20B872F872C1
:1022D0000220B874F0BD00002C01002007484178AE
:1022E0000A290AD00A214170002181748182FC21CF
:1022F00041729D2181729A21C17270472C01002088
:1023000000B50348817F6320FFF780FF00BD000018
:102310002C01002070B51F4D00206A782C46012149
:102320002034012A08D06970A874A882E876A071C8
:10233000A862E872A8726872AA79002A01D0A17115
:1023400000E0A071A878FDF788FF1349FDF747FF6B
:102350000646A862A07900281AD1E878FDF77DFF2B
:102360003146FDF7FFFEFDF77FFF68722879FDF724
:1023700074FF3146FDF7F6FEFDF776FFA872687927
:10238000FDF76BFF3146FDF7EDFEFDF76DFFE872DF
:1023900070BD00002C01002000007F43F8B52448E8
:1023A000807901283FD1224C0027203CA57C002DBC
:1023B00002D0012D20D11CE0E078FDF74EFFA66A87
:1023C0003146FDF7CFFEFDF74FFF60722079FDF734
:1023D00044FF3146FDF7C6FEFDF746FFA072607967
:1023E000FDF73BFF3146FDF7BDFEFDF73DFFE07217
:1023F00002E06772A772E772A08A401C80B2A082D6
:10240000022810D3A782A079F02800D3F020E17E23
:10241000FF22491CC9B2101AE176814203D9E7763E
:10242000002D01D0A774F8BD0120A074F8BD0000F4
:102430004C01002070B52F4D002368782C462034C5
:10244000022809D002206870AB74AB82EB76A371CE
:10245000AB62EB72AB726B72E879FEF71FFA207118
:102460006179814216D06071AB74AB82EB76A37157
:10247000AB62EB72AB726B72052805D1FC216972FD
:102480009D21A9729A21E972062803D0062169705C
:10249000A370E37001282CD1A879002802D0012074
:1024A000A07100E0A371A878FDF7D7FE1249FDF7EF
:1024B00096FE0646A862A07900281AD1E878FDF7B2
:1024C000CCFE3146FDF74EFEFDF7CEFE6872287950
:1024D000FDF7C3FE3146FDF745FEFDF7C5FEA872C8
:1024E0006879FDF7BAFE3146FDF73CFEFDF7BCFE0C
:1024F000E87270BD2C01002000007F43F8B5002079
:102500005C4E002432793546203D297A130001F0D3
:102510009BF807450549787C80844500B0790128FF
:102520003CD1AE7C002E02D0012E20D11CE0E878F8
:10253000FDF793FEAF6A3946FDF714FEFDF794FEF2
:1025400068722879FDF789FE3946FDF70BFEFDF725
:102550008BFEA8726879FDF780FE3946FDF702FE12
:10256000FDF782FEE87202E06C72AC72EC72A88A2F
:10257000401C80B2A882022810D3AC82A879F0282F
:1025800000D3F020E97EFF22491CC9B2101AE97677
:10259000814203D9EC76002E01D0AC74F8BD012045
:1025A000A874F8BD202901D8012027E00A46213A65
:1025B0001F2A01D8022021E00A46413A1F2A01D8E9
:1025C00003201BE00A46613A1F2A01D8042015E0C7
:1025D0000A46813A1F2A01D805200FE00A46A13A8F
:1025E0001F2A01D8062009E00A46C13A1F2A01D84D
:1025F000072003E0E1391E2900D8082000F01AF96D
:10260000F8BDFF20FFF7C0FDF8BDFF20FFF74CFD30
:10261000F8BDFF20FFF7FAFDF8BD00F0CFF93078E4
:10262000012800D1B070B0780128F5D1A88A401CEB
:1026300080B2A882C8280BD8F078410040180E4913
:102640000A5C6A7240184178A9728078E872F8BD15
:10265000FF219131884203D86C72AC72EC72F8BDE4
:10266000B470AC82F078401CC0B2F0700728F6D984
:10267000F470F8BD4C010020B0370008F8B50546ED
:1026800014462A880B889A4224D07D20FF27C00157
:102690002D3724499A4222D9D21A96B28E4205D2B7
:1026A00030467043FDF724FD401C80B221888142F2
:1026B0000AD0814202D9491E218005E0BE4201D3E1
:1026C000208001E0491C21802088B04203D928885D
:1026D000801B2880F8BD2988081A2880F8BD9A1A1E
:1026E00096B28E4205D230467043FDF701FD401C84
:1026F00080B2218881420AD0814202D9491E2180BC
:1027000005E0BE4201D3208001E0491C21802088E1
:10271000B04203D9288880192880F8BD2988081874
:102720002880F8BD10270000F8B51748174A017B2C
:10273000174F4900515A3980417B164A4900515A76
:102740007980807B14494000085AB88000256E00CB
:10275000F41920461230831F821D00902146A01DCF
:10276000FFF78CFFE088B95B884201D1002020830D
:102770006D1CEDB2032DEAD30848F988416339890D
:10278000C16379898163F8BD2C010020A438000859
:1027900090010020A43A0008A43C0008002C01404D
:1027A00006484178062908D006214170002181742D
:1027B0008182C176C1728172417270472C01002002
:1027C00030B5124A0023907C002802D0012804D1A1
:1027D00002E0FF21517200E05372918A491C89B2D4
:1027E000918202290DD39382D17E6325491CC9B2FF
:1027F000D176547E2C1BA14203DDD376002801D074
:10280000937430BD0120907430BD00002C01002075
:1028100006494878042805D0042048700020C87272
:1028200088724872C87D8872704700002C010020B1
:102830007047000010B50024FF221649030000F085
:1028400003FF0909060A0E12161A202409004A720B
:102850008C72CC7210BD4A728A72CA7210BD4C72F0
:102860008A72CA7210BD4A728C72CA7210BD4A72E4
:102870008A72CC7210BD4A72EB2088721420C87222
:1028800010BD4C728C72CA7210BD4C728A72CC72BE
:1028900010BD00002C01002000B50749487807282A
:1028A00005D0072048700020C87288724872887E60
:1028B000FFF7C0FF00BD00002C01002070470000A2
:1028C00006494878032805D0032048700020C872C4
:1028D00088724872887D4872704700002C01002081
:1028E00070470000074948780B2809D00B20487032
:1028F000002088820A4620329070C872887248721E
:10290000704700002C01002030B500F057F828482F
:102910000178012900D18170254B4278254C002592
:10292000203B092A13D0817801290FD1998A491CAB
:1029300089B29982322931D8521E50001018215C78
:1029400059720019417899728078D87230BD8178B7
:102950000129FBD1998A491C89B299827D221201F1
:1029600091420AD8C07841004018215C5972001980
:10297000417899728078D87230BD0F4A914203D85D
:102980005D729D72DD7230BD85709D82C178491C7B
:10299000C9B2C1700729F6D9C57030BD642903D802
:1029A0005D729D72DD7230BD85709D8230BD00000C
:1029B0004C010020B03700089808000004200C49A2
:1029C000096988430ED000210A4A104620300029A8
:1029D0000AD0D17F491CC9B2D177022901D3012184
:1029E000017070470121EFE70021D1770170704736
:1029F000000400502C010020704700008307FF22D4
:102A0000DB0E9A408907090E994000280BDA00076F
:102A1000000F0838830808489B001818C3699343BF
:102A20000B43C3617047830804489B001818036870
:102A300093430B430360704700ED00E000E400E0C7
:102A400010B5FDF7B9FE16480078030000F0FCFD54
:102A50000C09070A0D101316191C1F222509FDF772
:102A60003FFF10BDFDF758FF10BD00F04FF810BD3F
:102A7000FDF7F8FF10BDFDF785FE10BDFDF7D0FF97
:102A800010BD00F00FF810BDFDF7C2FE10BDFDF740
:102A90009BFE10BDFDF7DEFE10BD00F081FD10BDF8
:102AA0002C01002010B50D4820220178114301703F
:102AB00081781143C27801231A43C27002791A4304
:102AC00002231943817008210A43027142790A43A3
:102AD00042710348807E00F059FB10BDFC000020CD
:102AE0002C0100207047000010B500200549064A5F
:102AF00043181B688408A4001351001D2828F7D32D
:102B000010BD0000004000086801002010B5064814
:102B1000012102790A43027142790A434271034852
:102B2000807D00F097FA10BDFC0000202C010020F1
:102B300070B50546094C012210212046FFF763FAC3
:102B4000002210212046FFF772FA002D02D010203B
:102B5000A06170BD1020A06270BD00000014005084
:102B600070B50546094C012211462046FFF74BFA85
:102B7000002201212046FFF75AFA002D02D0012041
:102B8000A06170BD0120A06270BD00000004005073
:102B900070B5054605242407012204212046FFF7CD
:102BA00032FA002204212046FFF741FA002D02D01C
:102BB0000420A06170BD0420A06270BD70B5054600
:102BC000094C012202212046FFF71DFA00220221B2
:102BD0002046FFF72CFA002D02D00220A06170BD24
:102BE0000220A06270BD00000004005070B50546D0
:102BF00005242407012210212046FFF704FA0022B1
:102C000010212046FFF713FA002D02D01020A061FA
:102C100070BD1020A06270BD70B505460524240764
:102C2000012280212046FFF7EEF900228021204674
:102C3000FFF7FDF9002D02D08020A06170BD80203B
:102C4000A06270BD70B5204C002210212046FFF715
:102C5000DAF9002210212046FFF7F5F91B4C00227B
:102C600001212046FFF7CFF9002201212046FFF77E
:102C7000EAF905252D07002204212846FFF7C3F9AC
:102C8000002204212846FFF7DEF900220221204617
:102C9000FFF7B9F9002202212046FFF7D4F90022FC
:102CA00010212846FFF7AFF9002210212846FFF730
:102CB000CAF9002280212846FFF7A5F900228021C9
:102CC0002846FFF7C0F970BD001400500004005002
:102CD000704710B5FEF706F910BD000007484168BF
:102CE000074842680123120C12045B031A43114384
:102CF00041600449C003886070470000000FFF1F57
:102D00000010024000ED00E010B51048FEF79CFBFB
:102D10000F4901220A70C8880023401C80B2C88075
:102D2000052801D3CB804A704889401C80B2488175
:102D3000642809D34B81CA708889401C80B288817D
:102D40000A2801D38B810A7110BD0000F401002014
:102D50001C01002070B533480169C9072DD0C16836
:102D6000C907C90F002928D00121C94301612E4D8F
:102D7000284602462B7820329179007B012B01D125
:102D800000291BD0022B04D11279012A01D100297C
:102D900014D0E97B814202D0E87300F097F9297CD6
:102DA000687B814202D0287400F0C0F9697CA87B5E
:102DB000814202D0687400F0A1F970BD1B4CE1891A
:102DC000491C89B2E1813229F7D30021E181E17800
:102DD000884209D0884202D9491CE17001E0491EAD
:102DE000E170E07800F072F9697B2079814209D0C6
:102DF000814202D9401C207101E0401E20712079DF
:102E000000F094F9A97B60798142D6D0814202D941
:102E1000401C607101E0401E6071607900F06EF945
:102E200070BD0000002C01402C010020C4000020D7
:102E300030B50268114CA04204D170251346AB4353
:102E40004A681A430E4BA04201D0984204D1032590
:102E50002D02AA43CD682A438025AA434D692A43FF
:102E600002608A68C2620A688262A04201D0984207
:102E700001D1096901630121416130BD002C01408C
:102E80000044014010B5C906C90E01238B40046AF5
:102E90009C430462036A8A401343036210BD00002E
:102EA000F0B5026A520852000262056A43688269FC
:102EB0007024A243920892000C68144302229543A6
:102EC0008A682A430F4E104FB04201D0B84206D153
:102ED0000825AA43CD681543042295432A46B042EB
:102EE00001D0B84208D1FF250135AB436D00AB439B
:102EF0004D691D438B692B4343608461496841637D
:102F00000262F0BD002C014000440140F0B5026AAD
:102F100010239A430262046A4368826907252D03DD
:102F2000AA4303252D02AA430D682D021543202232
:102F300094438A6812012243104EB04207D1802781
:102F40001446BC43CA68120122434024A243B04243
:102F500002D00B4CA0420AD10124A402A343640076
:102F6000A3434C69A4001C438B699B00234343602B
:102F70008561496881630262F0BD0000002C014058
:102F800000440140F0B5026AFF2301339A43026214
:102F9000046A4368C2697025AA43920892000D68CA
:102FA00015430122520294438A6812022243104EB2
:102FB000B04207D1C7141446BC43CA681202224368
:102FC0000415A243B04202D00A4CA0420AD1012407
:102FD0002403A3436400A3434C6924011C438B696D
:102FE0001B0123434360C5614968C1630262F0BDB0
:102FF000002C01400044014030B5026A01231B034C
:103000009A430262046A4268C36907252D03AB43F1
:1030100003252D02AB430D682D021D4301235B03E5
:103020009C438B681B032343084CA04202D0084CEE
:10303000A04205D10124A403A2434C69A401224368
:103040004260C56149680164036230BD002C0140E3
:103050000044014070B50446174884422BD86421CF
:103060002046FDF745F80A21FDF742F80D460A21F2
:103070002046FDF73DF80C460A21FDF739F80B46CE
:1030800021460020062255430D4A0C4CAA1806255D
:103090006B430C4D5B19062569430B4D4D19215CA3
:1030A000165C31431E5C31432E5C31432154401C7D
:1030B00080B20628F3D370BDE7030000FC000020B7
:1030C000C8370008043800084038000810B50A491D
:1030D0004860084600222038FEF76CFA002801D02C
:1030E000FDF738FC044800212038FEF7CFFA00280D
:1030F00001D0FDF72FFC10BD3402002010B50A49A5
:103100004860084604222038FEF754FA002801D00F
:10311000FDF720FC044804212038FEF7B7FA002808
:1031200001D0FDF717FC10BD3402002010B50A498C
:103130004860084608222038FEF73CFA002801D0F3
:10314000FDF708FC044808212038FEF79FFA002804
:1031500001D0FDF7FFFB10BD3402002010B50A4975
:10316000486008460C222038FEF724FA002801D0D7
:10317000FDF7F0FB044808212038FEF787FA002805
:1031800001D0FDF7E7FB10BD3402002070B56328C5
:103190001CD80A21FCF7ACFF0C460A21FCF7A8FF5B
:1031A0000A4621460020062462430A4C084B1219A5
:1031B00006246143084C0C19195C155C2943255CF5
:1031C00029431954401C80B20628F5D370BD000075
:1031D000FC000020043800084038000810B5018CBD
:1031E000490612D501684A6901231B03446A9A43C0
:1031F00022434A61416A994207D101684A6903231F
:103200005B03806A9A4302434A6110BD0168CA6841
:10321000FF2321339A43CA60016820304A6952086B
:1032200052004A6120218177704710B50168CA6851
:1032300040239A43CA6020223D210A54FEF717FB1F
:10324000002010BD70B5014620310A46897F222931
:1032500001D0022070BD012381681B03994202D175
:10326000016900290DD001684B68416B4C1C446317
:103270000B70418F491E0904090C41870BD00020B7
:1032800070BD416B03685B68DB05DB0D0B80416B38
:10329000891C4163EDE70168CC6820239C43CC6026
:1032A0000168CC68DD00AC43CC6001684C696408FF
:1032B00064004C619377FEF7D9FA002070BD0000DE
:1032C00070B5044620680169012252039143E26807
:1032D00011430161A16820690143606901432068CD
:1032E000C268294B1A400A43C260E16920684269FA
:1032F0000123DB029A430A434261206841690322A9
:1033000012029143A26911434161E06998421DD1C3
:10331000FDF7E8FE6168192249005043FCF7E8FE1A
:1033200005466421FCF7E4FE060164214843281A9F
:10333000C0003230FCF7DCFEF821014049004007B4
:103340007118400F08182168886070BDFDF7CAFE2B
:103350006168192289005043FCF7CAFE05466421C2
:10336000FCF7C6FE060164214843281A00013230EA
:10337000FCF7BEFEF021014000077118000F08188D
:103380002168886070BD0000F3E9FFFF3D21095C02
:10339000212901D002207047012281681203914245
:1033A00002D1016900290DD0C16A02680978516013
:1033B000C16A491CC162418E491E0904090C41863B
:1033C0000AD013E0C16A02680988C905C90D5160B5
:1033D000C16A891CC162EEE70168CA6880239A430A
:1033E000CA600068C16840221143C1600020704774
:1033F00070B52B480068016889064CD54168294A98
:103400001182C805C00FD071CCB29471012300287D
:1034100003D00026012802D004E0137070BD11789B
:1034200001292ED00128F9D190780128F6D15089B0
:10343000401C80B250811C49C98881421BD8C91DDB
:10344000814218D9174D918912356C54491C89B2A3
:10345000918107290FD315492C788C706C78CC702A
:10346000AC780C71EC784C712C798C716C79CC71D6
:10347000AC790C721372C028D0D3568196819670A5
:1034800070BD16705470002C01D0567070BD5681FE
:103490009681937070BD0248FEF736F970BD00004A
:1034A000B0010020C4000020F40000202C01002006
:1034B00010B5FFF719FB174C2068002802D01649F9
:1034C00088420BD10020154A810053586350401C9C
:1034D000C0B20A28F8D30F4800F086F810492078C7
:1034E000C880104821798175217AC175217B0176C8
:1034F000217C4176217D8176217E0177217F417774
:10350000218C81770246A18C2032517001210170FB
:1035100010BD000068010020FFFF00007C3800089B
:10352000F40000202C01002010B50648C1780029C5
:1035300007D00021C170FFF783FA03480168491CD6
:10354000016010BD1C010020EC00002010B50648F1
:103550000178002906D0002101700448FEF70AFC1A
:10356000FFF72CFA10BD00001C010020FC00002019
:1035700010B50948417800290CD000214170074C52
:103580002078FEF70DFB6088FEF756FAFEF7C2FBC7
:10359000FFF7CAF810BD00001C010020F400002055
:1035A00010B50F4820220178114301708278212143
:1035B0000A43C37801210B43C37043790B4344781A
:1035C00008210C4344700A242243827002790A4382
:1035D00002710B43437103484078FFF7D7FD10BDDC
:1035E000FC0000204C01002010B50446FDF7CEFB86
:1035F000FCF7BAFE2046FCF7CDFEFDF733FB10BD0D
:1036000010B50E48C1880E4801600E498A7D42609F
:10361000CA7D82600A7EC2604A7E02618A7E426101
:103620000A7F82614A7FC261897F01620549203138
:1036300049784162FFF7D8FF10BD0000F400002078
:10364000680100202C01002030B47446641E2578E7
:10365000641CAB4200D21D46635D5B00E31830BCC6
:10366000184702E008C8121F08C1002AFAD17047A3
:103670007047002001E001C1121F002AFBD17047F2
:10368000FDF738FCFCF744FFFF20F530FDF704FAA6
:10369000FCF794FEFCF770FFFDF720F8FDF716F835
:1036A0006420FFF713FD6420FFF740FD6420FFF75F
:1036B00025FD10210D48FCF74AFD2C210C48FCF794
:1036C00046FD08210B48FCF742FD06210A48FCF79D
:1036D0003EFDFFF7EDFEFEF7CDF8FFF737FFFFF7F2
:1036E00047FFFFF721FFFEF7DFFAF4E71C01002098
:1036F0002C010020F4000020FC000020000000004D
:1037000000000000000000000000000000000000B9
:1037100000000000000000000000000001000000A8
:10372000020000000300000004000000060000008A
:1037300007000000080000000900000000093D002B
:1037400000127A000024F4004086510100366E0118
:1037500000093D0000093D0000093D000000000097
:103760000000000000000000000000000100000058
:103770000200000003000000040000001C0FFF1FF7
:10378000300FFF1F440FFF1F580FFF1F6C0FFF1F4D
:103790001C0FFF1F1C0FFF1F1C0FFF1F00093D0008
:1037A00000127A000024F4004086510100366E01B8
:1037B000FF000000FF000000FFFFEB14FFFF00FF11
:1037C00000FF00FFFFFFFFFF08080A0008080008CD
:1037D000080000000A08000008080A08080008009D
:1037E00002080A0000000A000A0008000A000A0095
:1037F00008080808080000000A080A0008080A0863
:103800000A0008001010100202020000000002026C
:10381000001010120200001000120202100000102E
:10382000020210100012000210101012000200001C
:103830000002020210101012020210100012020206
:103840000404000404140004000400000424000024
:1038500004100024000404100024000400040020CC
:1038600000040414042000040414000400040010E4
:1038700004240004041400240004041401000000C3
:103880000000000000000000000000000100000037
:103890000100000001000000010000000100000024
:1038A00001000000000004000500060007000800F9
:1038B000090009000A000B000C000D000E000F00AB
:1038C000100011001200130014001500160017005C
:1038D0001700180019001A001B001C001D001E0014
:1038E0001F002000210022002300240025002600C4
:1038F00027002700280029002A002B002C002D007B
:103900002E002F003000310032003300340035002B
:1039100036003700380039003A003A003B003C00DE
:103920003D003E003F004000410042004300440093
:10393000450046004700480049004A004B004C0043
:103940004D004E004F0050005100520053005400F3
:10395000550056005700580059005A005B005C00A3
:103960005D005E005F006000610062006300640053
:10397000650066006700680069006A006B006C0003
:103980006D006E006F0070007100720073007400B3
:10399000750076007700780079007A007B007C0063
:1039A0007D007E007F008000810082008300840013
:1039B00085008600870089008A008B008C008D00BE
:1039C0008E008F009000910092009300940095006B
:1039D0009600980099009A009B009C009D009E0014
:1039E0009F00A000A200A300A400A500A600A700BD
:1039F000A800AA00AB00AC00AD00AE00AF00B00064
:103A0000B200B300B400B500B600B800B900BA0007
:103A1000BB00BC00BE00BF00C000C100C300C400AA
:103A2000C500C600C800C900CA00CB00CD00CE004A
:103A3000CF00D100D200D300D500D600D700D900E6
:103A4000DA00DB00DD00DE00E000E100E300E4007E
:103A5000E600E700E900EA00EC00ED00EF00F0000E
:103A6000F200F300F500F700F800FA00FC00FE0099
:103A7000FF00010103010501070109010B010D010F
:103A80000F0111011301150118011A011D011F0178
:103A90002201250128012B012E01320136013C01B2
:103AA00042014F0100000400050006000700080065
:103AB00009000A000C000D000E000F00100012009B
:103AC0001300140015001700180019001B001C003B
:103AD0001E001F00200022002300250026002800D1
:103AE00029002B002C002E002F0031003300340061
:103AF0003600380039003B003D003E0040004200E7
:103B000044004500470049004B004D004F00510064
:103B100053005400560058005A005C005E006000DC
:103B200062006400670069006B006D006F00710047
:103B30007300760078007A007C007F0081008300AB
:103B4000850088008A008C008F0091009400960008
:103B500098009B009D00A000A200A500A800AA005C
:103B6000AD00AF00B200B500B700BA00BD00BF00A5
:103B7000C200C500C700CA00CD00D000D300D500E8
:103B8000D800DB00DE00E100E400E700EA00ED0021
:103B9000F000F300F600F900FC00FF00020105014F
:103BA00009010C010F011201150119011C011F016E
:103BB0002301260129012D013001330137013A018A
:103BC0003E014101450148014C014F01530157019C
:103BD0005A015E016201650169016D0170017401A4
:103BE00078017C018001840188018B018F019301A0
:103BF00097019B019F01A401A801AC01B001B40190
:103C0000B801BC01C101C501C901CE01D201D60173
:103C1000DB01DF01E401E801ED01F101F601FA0148
:103C2000FF01040208020D02120217021C02210207
:103C300025022A022F0234023A023F0244024902BC
:103C40004E02530259025E02640269026F0274025C
:103C50007A027F0285028B02910297029C02A202E5
:103C6000A902AF02B502BB02C102C802CE02D50250
:103C7000DC02E302E902F002F802FF0206030E038F
:103C800015031D0325032D0336033E03470350038D
:103C90005A0364036E037903850391039F03AF0303
:103CA000C303E80300000400050006000700080045
:103CB00009000A000C000D000E000F001000120099
:103CC0001300140015001700180019001B001C0039
:103CD0001E001F00200022002300250026002800CF
:103CE00029002B002C002E002F003100330034005F
:103CF0003600380039003B003D003E0040004200E5
:103D000044004500470049004B004D004F00510062
:103D100053005400560058005A005C005E006000DA
:103D200062006400670069006B006D006F00710045
:103D30007300760078007A007C007F0081008300A9
:103D4000850088008A008C008F0091009400960006
:103D500098009B009D00A000A200A500A800AA005A
:103D6000AD00AF00B200B500B700BA00BD00BF00A3
:103D7000C200C500C700CA00CD00D000D300D500E6
:103D8000D800DB00DE00E100E400E700EA00ED001F
:103D9000F000F300F600F900FC00FF00020105014D
:103DA00009010C010F011201150119011C011F016C
:103DB0002301260129012D013001330137013A0188
:103DC0003E014101450148014C014F01530157019A
:103DD0005A015E016201650169016D0170017401A2
:103DE00078017C018001840188018B018F0193019E
:103DF00097019B019F01A401A801AC01B001B4018E
:103E0000B801BC01C101C501C901CE01D201D60171
:103E1000DB01DF01E401E801ED01F101F601FA0146
:103E2000FF01040208020D02120217021C02210205
:103E300025022A022F0234023A023F0244024902BA
:103E40004E02530259025E02640269026F0274025A
:103E50007A027F0285028B02910297029C02A202E3
:103E6000A902AF02B502BB02C102C802CE02D5024E
:103E7000DC02E302E902F002F802FF0206030E038D
:103E800015031D0325032D0336033E03470350038B
:103E90005A0364036E037903850391039F03AF0301
:103EA000C303E803C43E0008000000200401000032
:103EB00062360008C83F0008040100205C050000CD
:103EC0007236000800000000000000000000000042
:103ED00000000000000000000000000000000000E2
:103EE00000000000000000000000000000000000D2
:103EF00000000000000000000000000000000000C2
:103F000000000000000000000000000000000000B1
:103F100000000000000000000000000000000000A1
:103F20000000000000000000000000000000000091
:103F30000000000000000000000000000000000081
:103F40000000000000000000000000000000000071
:103F50000000000000000000000000000000000061
:103F60000000000000000000000000000000000051
:103F70000000000000000000000000000000000041
:103F80000000000000127A000000000000000000A5
:103F90000000000000000000000000000000000021
:103FA000000000000400000001000000000000000C
:103FB0000000000000000000000000000000000001
:083FC0000000000000000000F9
:04000005080000C12E
:00000001FF
