:020000040800F2
:1000000058060020D9000008292A000869180008AD
:1000100000000000000000000000000000000000E0
:10002000000000000000000000000000BD2C0008DF
:100030000000000000000000D12A0008BF2C0008CA
:10004000000000000000000000000000EB000008BD
:10005000EB000008EB000008EB000008EB000008D4
:100060000000000000000000000000000000000090
:10007000EB000008412D0008EB0000080000000024
:1000800000000000EB00000800000000000000007D
:1000900000000000F52C000800000000EB00000844
:1000A00000000000EB00000800000000DD33000845
:1000B0000000000000000000000000000000000040
:1000C0000448854600F028F9004800473D03000831
:1000D000C046C046580600200448804704480047F0
:1000E000FEE7FEE7FEE7FEE7FEE7FEE7C92C0008B5
:1000F000C100000830B50B46014600202022012433
:1001000009E00D46D5409D4205D31D469540491B4B
:100110002546954040191546521E002DF1DC30BD94
:1001200003460B439B0703D009E008C9121F08C010
:10013000042AFAD203E00B780370401C491C521EBB
:10014000F9D27047D2B201E00270401C491EFBD2C6
:1001500070470022F6E710B513460A4604461946D2
:10016000FFF7F0FF204610BD024670B54A40D30F9E
:10017000DB0740002DD04A002AD0010E140E0002E9
:1001800012020919400A520A8418E5010446544330
:10019000000A120A2E045043A4194219200CC54328
:1001A000AA18120C0125AD03521C521912047F39F2
:1001B000240400D0521C104301D44000491EC2B296
:1001C0000C06C0092018401C4008802A02D003E019
:1001D000002070BD40084000002900DA00201843CC
:1001E00070BD70B502464A40D50F40004A00ED0789
:1001F00040085208002814D0002A12D0C40DD30D94
:1002000041020120C0055202490A520AE41A0918A3
:1002100012187D34914201D3641C00E04900002C87
:1002200001DA002070BD0023914201D3891A0343F3
:10023000400849000028F7D100290AD0914202D194
:100240000121C90705E0914201D2012101E001210C
:10025000C943E005C018401900F01CF870BD10B586
:1002600000229623114600F01DF810BD4100400207
:100270000122400AD205090E80187F2901DA0020E8
:100280007047962903DC9622511AC8407047963968
:1002900088407047002904DA401C490001D1400819
:1002A0004000704770B40024050C05D110240004F0
:1002B00002D1002921D01124050E01D100020834F9
:1002C000050F01D10001241D850F01D18000A41C60
:1002D000002801DB4000641C002908D020252E1BCB
:1002E0000D46F540A14000D00121294308430106F5
:1002F0001B1B000ADB1D02D5002070BC7047DB050C
:10030000181880180029F8DA401C4900F5D170BC93
:100310004008400070470000064C0125064E05E0ED
:10032000E36807CC2B430C3C98471034B442F7D316
:10033000FFF7CAFED03E0008F03E000810B50122CB
:10034000D2060020074B810054585C50401CC0B2BC
:100350003028F8D3012004494007886003F0A0F951
:10036000002010BD0000002000ED00E000B587B0C7
:10037000002006900320019006480490012005907B
:1003800006A901A800F09CFB002801D000F0E4FAC7
:1003900007B000BD0040000870B50546074C261D9B
:1003A00008E02A462146012000F06CFC002801D11B
:1003B00080348035B442F4D370BD000000400008A2
:1003C00038B55148416B012211434163416B1140E3
:1003D0000091426B02210A434263426B0A40009241
:1003E000426B20210A434263406B08400090474C17
:1003F00001221021204601F000FE0022102120469B
:1004000001F00BFE02221021204601F020FE002206
:100410001021204601F011FE3D4C012211462046DC
:1004200001F0EBFD00220121204601F0F6FD022241
:100430000121204601F00BFE00220121204601F09F
:10044000FCFD05252D0701220421284601F0D5FDDC
:1004500000220421284601F0E0FD02220421284662
:1004600001F0F5FD00220421284601F0E6FD0122FD
:100470000221204601F0C1FD00220221204601F0A8
:10048000CCFD02221146204601F0E1FD00220221AE
:10049000204601F0D2FD01221021284601F0ADFDD9
:1004A00000221021284601F0B8FD02221021284622
:1004B00001F0CDFD00221021284601F0BEFD0122F1
:1004C0008021284601F099FD00228021284601F074
:1004D000A4FD02228021284601F0B9FD00228021DE
:1004E000284601F0AAFD00220421204601F085FDE6
:1004F00002220421204601F0AAFD00220421204608
:1005000001F09BFD38BD00000010024000140050B7
:100510000004005010B58CB01C2105A8FFF719FE8F
:10052000002401940294039404940B200590FF206E
:1005300001300890099410480121008AC903C004C1
:10054000C00C40180A9006940B9405A800F00EFE0B
:10055000002801D000F000FA0720019002940394D3
:100560000494002101A800F007FD002801D000F04C
:10057000F3F90CB010BD0000000FFF1F08B51148C3
:100580000268012149040A430260006808400090A3
:100590000E480D4901601721C1600D4941600021DD
:1005A000016181604161816100F016FF002801D086
:1005B00000F0D2F9054800F032FF002801D000F029
:1005C000CBF908BD4010024000440140FC0100206E
:1005D000E7030000F0B587B01848416B01252943B7
:1005E0004163416B29400191416B022421434163E6
:1005F000406B2040019003940495059408270297CE
:100600000D260696052002A9000700F0D5FB0297EB
:10061000069502A90A4800F0CFFB02950696052030
:1006200002A9000700F0C8FB02940696052002A963
:10063000000700F0C1FB07B0F0BD00000010024051
:100640000004005008B50F480D4901600E490B68C1
:10065000CA1413430B600968114000917D21090100
:10066000C1600121416000210161816041618161BE
:1006700000F0B2FE002801D000F06EF908BD0000C5
:10068000002C01401C0200204010024010B50F4811
:1006900060210160002181600161C160816141616F
:1006A000002002F009FD002002F01EFD002002F0F3
:1006B00033FD002002F048FD0448203800F0AFFE72
:1006C000002801D000F048F910BD00003C020020D5
:1006D00010B5FFF77FFFFFF7B5FFFFF7D7FF10BD9E
:1006E000F0B587B02348416B202529434163406B17
:1006F000284001901F484030026869020A430260A6
:100700000068084001900224029403940126049694
:1007100005940827069702A9174800F04DFB02969A
:10072000039404960594069702A9134800F044FB2D
:10073000134C1248206013486060E801A06000205C
:10074000E0602061A0610C206061204600F0BEFFE7
:10075000002801D000F000F9094801F041F8002814
:1007600001D000F0F9F82068C1682943C16007B0E2
:10077000F0BD00000010024000140050003801409D
:10078000B801002090D0030010B50A4821228178DA
:1007900011438170C27801210A43C27002790A4371
:1007A000027142790A4342710348007F02F048FC1B
:1007B00010BD0000F20000202401002010B5062129
:1007C0000148FFF7C6FC10BDF200002070B50F48CD
:1007D000012142780A43427082780A43C3780B436E
:1007E000C37003790B4344790C4301780A252943EC
:1007F000017002210A43827008210B4303710C43EC
:1008000044710348C07802F0B7FC70BDF2000020CC
:100810004401002010B50E48202104780C43827852
:100820000A43C37801210B43C37003790B430821AA
:100830000C4304700224224382700B4303714279FB
:100840000A4342710348807802F096FC10BD000014
:10085000F20000204401002010B50F482023017849
:10086000194382781A43C37801242343C370037960
:10087000234303710A231943017041780823194364
:10088000417002210A438270417919434171034842
:10089000007902F071FC10BDF2000020440100203C
:1008A0000146322901D8012070470A46333A312ADD
:1008B00001D8022070470A46653A312A01D8032040
:1008C00070470A46973A312A01D8042070470A46F1
:1008D000C93A312A01D805207047FB390429FBD8D1
:1008E0000620704710B50B48012142780A43427038
:1008F00082780A438270C2780A43C27002790A433E
:10090000027142790A4342710348C08802F098FBA1
:1009100010BD0000F2000020EA00002010B50C48D5
:100920002022017811430170427801210A4342706C
:10093000827821231A43827002790A430271427934
:100940000A4342710348C08802F07AFB10BD0000E0
:10095000F2000020EA000020FEE700000549002028
:100960004860054841690422114341610348C106BA
:1009700008607047FC000020002002402143341230
:10098000054A0021516005494A6902231A434A6118
:10099000FF21016070470000FC00002000200240A1
:1009A00070B500220C4C636901252B436361EFF3A2
:1009B000108372B60125ED0408E040C940C0521C06
:1009C000D2B21F2A02D166692E436661202AF4D36F
:1009D00083F3108870BD00000020024003494A697B
:1009E000CB141A434A61FF21016070470020024086
:1009F00070B5044600F06AFA0419084D05E000F0ED
:100A000065FAA04201D3032070BD2869C043C0032A
:100A1000F5D503482861002070BD00000020024089
:100A20001180000010B50E48202301781943827808
:100A30001A43037901242343037143792343022496
:100A40002143017041780824214341700A210A435F
:100A50008270234343710348407F02F08DFB10BD39
:100A6000F20000202401002010B50A48202201785D
:100A7000114301708178212211438170C2780121D4
:100A80000A43C27002790A4302710348C07E02F031
:100A9000D7FA10BDF20000202401002070B50446F2
:100AA00000F014FA0546601C02D00448406824187F
:100AB00000F00CFA401BA042FAD370BDD400002015
:100AC000F8B504460E46012562480178012964D034
:100AD00001210170604840680004400F5F490B68C5
:100AE00082005F4882581068C7B2BC46BB4229D119
:100AF0004B68C701FF0DBB4224D10B690004000EF7
:100B000083421FD18B685068C7B2BB421AD1CB68F1
:100B10004001400D834215D148699368DB03DB0B2C
:100B200098420FD18869D368DB03DB0B984209D167
:100B3000CB69106987B2BB4204D10B6A8000800C7C
:100B400083421ED0604608601068C001C00D486036
:100B500010880004000E0861107988605068400118
:100B6000400DC8609068C003C00B4861D068C003E6
:100B7000C00B8861108A80B2C86110698000800C47
:100B800008627D202168C000012908D00027FF43AA
:100B9000022915D0032935D057E00220F8BD0446BC
:100BA000FFF726FF010050D1FFF7D8FE2046FFF7E0
:100BB0001FFF05462B49486904229043486144E0E1
:100BC0007D20C000FFF714FF00283ED13760676822
:100BD00011E03846FFF7D4FE7D20C000FFF708FF84
:100BE000054620484169022291434161280001D015
:100BF00037602AE08037A0686168C0014018B842B9
:100C0000E7D822E07D20C000FFF7F2FE00281CD1CB
:100C10003760E76813E03846FFF7E0FE7D20C0004C
:100C2000FFF7E6FE05460F484169C2149143416152
:100C3000280001D0376008E0012000033F18206938
:100C4000E16800034018B842E5D80248002101706D
:100C50002846F8BDFC0000200010024000210240A0
:100C60009837000800200240012005494A69C3075F
:100C70001A434A614969002900DA002070470000E0
:100C800000200240F7B50F463C4C207801285AD08E
:100C9000012020703A4840680004400F39490D682F
:100CA0008200394880580268D3B29D4229D14D68EC
:100CB000D601F60DB54224D10D691204120E9542EB
:100CC0001FD18D684268D6B2B5421AD1CD685201A3
:100CD000520D954215D14A698568ED03ED0BAA4284
:100CE0000FD18A69C568ED03ED0BAA4209D1CD6920
:100CF000026996B2B54204D10D6A9200920C9542F7
:100D00001DD00B600268D201D20D4A600288120425
:100D1000120E0A6102798A6042685201520DCA605D
:100D20008268D203D20B4A61C268D203D20B8A61B5
:100D3000028A92B2CA6100698000800C086278065B
:100D400003D00120FEBD0220FEBD7D25ED0028461A
:100D5000FFF74EFE00280DD138460299FFF720FE1E
:100D60002846FFF745FE09494A69520852004A6180
:100D70000028E9D100212170FEBD0000FC00002008
:100D80000010024000210240983700080020024075
:100D9000002006494A69002A07DA054A8A60054A9E
:100DA0008A604969002900DA01207047002002406A
:100DB00023016745AB89EFCDF0B500227CE001242B
:100DC0009440A4462340002B75D04C68022C01D0DF
:100DD000122C0CD1D408A40027183D6A5407E40E45
:100DE0000F26A640B5430E69A6402E433E62066814
:100DF00055000324AC40A6430F79BF07BF0FAF4097
:100E0000374307604E68012E05D0022E03D0112E05
:100E100001D0122E0ED18668A643CF68AF4037436B
:100E2000876047686646B7430E79F606F60F964028
:100E30003E434660C668A6438C68AC403443C460F9
:100E40004C68E40037D595081E4CAD002F193D6E57
:100E50009407E40E0F26A640B54305263607B04298
:100E600001D1002605E0184EB04201D1012600E074
:100E70000226A6402E43134D3E66124E803634683D
:100E80009C434F68FF0300D51C43346074689C4347
:100E90004F68BF0300D51C4374602C689C434E68A8
:100EA000F60200D51C432C606C689C434E68B60269
:100EB00000D51C436C60521C0B681C46D44000D00B
:100EC0007DE7F0BD00180240000400500148806832
:100ED00070470000D40000200248816842688918E9
:100EE00081607047D400002010B50024032000F07A
:100EF00009F8002801D0012401E000F02BF8204679
:100F000010BD000070B505460024104E7168002920
:100F100019D07D20C000FFF7EDF801460C480068AD
:100F2000FFF7E8F800F03EFA002801D001240BE0BA
:100F3000042D06D200222946501E00F019F8356013
:100F400002E0012400E00124204670BDD40000200E
:100F5000C000002070470000002805DBC106C90E54
:100F600001208840014908607047000000E100E06E
:100F700010B502F063FB10BDF8B504460D46002C19
:100F80000FD04D480068C007C00FA84218D24A4F82
:100F900038684008400028433860FFF797FF06464E
:100FA00009E00120F8BDFFF791FF811B4348814212
:100FB00001D90320F8BD3868C007C00FA842F2D19C
:100FC00020683F4E81070DD5400704D5B068072142
:100FD00009030843B060B0680F2109028843A16883
:100FE0000843B0602078C0072DD06068012808D081
:100FF00000280BD032494031096A89070BD40120FF
:10100000F8BD3168890306D40120F8BD316849056F
:1010100001D40120F8BDB168C908C9000143B1601D
:10102000FFF754FF074607E0FFF750FFC11B2348B7
:10103000814201D90320F8BDB068382108406168B9
:10104000C9008842F0D11C480168C907C90FA942EC
:1010500016D901684908490029430160FFF736FFA6
:10106000074607E0FFF732FFC11B1448814201D950
:101070000320F8BD10480068C007C00FA842F1D196
:101080002078400706D5B068072109038843E16846
:101090000843B06000F034F8B1683C22890911407F
:1010A000084A515CC906C90EC8400749086007488C
:1010B0000068FFF727FFF8BD0020024088130000FA
:1010C0000010024018370008C0000020D4000020A3
:1010D0000148006870470000C000002000B5FFF71D
:1010E000F7FF054989681C22890A1140034A515CAF
:1010F000C906C90EC84000BD00100240783700087C
:1011000000B585B0142216496846FFF709F815485E
:1011100081688906490F0CD081688906490F012929
:1011200018D080688006400F032815D0002005B035
:1011300000BD016889044A0F012191404068000404
:10114000400F042800D9002080006A461058FEF79E
:10115000D1FFECE70448EAE70120C003E7E700001D
:10116000B83700080010024000366E01F8B504469A
:10117000002C1DD020783827C007864D002856D077
:10118000A8683840082815D06068002807D0A068F3
:10119000002817D029690C229143014329610121BC
:1011A0006068090488420FD12868084328601EE05F
:1011B0000120F8BD2868800339D56068002836D141
:1011C0000120F8BD0120F8BD052301221B04920473
:1011D000984206D128681043286028680843286090
:1011E00005E0286888432860286890432860606884
:1011F00000280ED0FFF76AFE064606E0FFF766FEFF
:10120000801BC82801D90320F8BD28688003F5D5C4
:101210000DE0FFF75BFE064606E0FFF757FE801B7A
:10122000C82801D90320F8BD28688003F5D42078A8
:10123000800772D5AE683E40002E12D0FF20E168D4
:101240000130002958D029680722D202914322692F
:1012500011432960296801432960FFF737FE0646DC
:1012600040E02868400502D5E068002809D0686899
:101270006169000C000408436860FFF727FE074619
:1012800008E00120F8BDFFF721FEC01B022801D9AC
:101290000320F8BD28684005F5D5002E13D1286835
:1012A0000721C9028843216908432860FFF728FF06
:1012B000A9683C2289091140374A515CC906C90E08
:1012C000C8403649086036480068FFF71BFE002812
:1012D00023D00120F8BDFFF7F9FD801B022801D9BA
:1012E0000320F8BD28684005F5D568686169000CE1
:1012F00000040843686010E0296881432960FFF713
:10130000E5FD064606E0FFF7E1FD801B022801D956
:101310000320F8BD28684005F5D42078000736D5AD
:10132000A8681C4D8006400F403503280AD0A069EC
:1013300000281AD0286A012108432862FFF7C6FD59
:1013400004460EE0286A800721D5A06900281ED136
:101350000120F8BDFFF7BAFD001B022801D90320C8
:10136000F8BD286A8007F5D511E0286A40084000DA
:101370002862FFF7ABFD044606E0FFF7A7FD001B60
:10138000022801D90320F8BD286A8007F5D400207F
:10139000F8BD00000010024018370008C00000200F
:1013A000D400002010B50949401E884201D901200F
:1013B00010BD074C60610321081F02F03FF90020B7
:1013C000A06107202061002010BD0000FFFFFF008A
:1013D00000E000E07047704710B50446002C03D0D1
:1013E000A07F002802D006E0012010BD0020607719
:1013F000204600F00AF80220A077211D206801F0A5
:101400000DFD0120A077002010BD10B501220021A4
:101410001520FFF7ADFD1520FFF79EFD10BD0168FB
:10142000CB6801221343CB60006881684907490FEC
:10143000062902D0016811430160002070477047FF
:1014400070B50446206801690025C9438907002951
:1014500016DBC168C943890712D4E91E0161012066
:10146000207720688069800703D02046FFF7E7FFD8
:1014700005E0204600F099F8204600F002F92577B3
:1014800020680169C943490718D4C168C94349079D
:1014900014D40421C94301610220207720688069A7
:1014A0008005800F03D02046FFF7C9FF05E02046E6
:1014B00000F07BF8204600F0E4F825772068016909
:1014C000C943090717D4C168C943090713D40821C0
:1014D000C9430161042020772068C069800703D0D8
:1014E0002046FFF7ACFF05E0204600F05EF82046FE
:1014F00000F0C7F8257720680169C943C90618D4E8
:10150000C168C943C90614D41021C9430161082028
:1015100020772068C0698005800F03D02046FFF740
:101520008EFF05E0204600F040F8204600F0A9F8C4
:10153000257720680169C943C90708D1C168C94333
:10154000C90704D1891E0161204600F0BDF820685A
:101550000169C943090609D4C168C943090605D40C
:101560008021C94301612046FFF734FF20680169EB
:10157000C943490609D4C168C943490605D4402175
:10158000C9430161204600F0A0F820680169C94301
:10159000890609D4C168C943890605D42021C943F5
:1015A00001612046FFF717FF70BD7047F8B504468C
:1015B0000D46607F01280ED0012060770220A077C1
:1015C00004260827002A08D0042A18D0082A2CD07C
:1015D0000C2A51D13BE00220F8BD2946206801F0D9
:1015E00055FC206881693943816120688169B14374
:1015F0008161206881692A69114381613CE0294643
:10160000206801F079FC206881690122D20211432F
:1016100081612068816952109143816120688169EC
:101620002A6912021143816126E02946206801F0EF
:101630009FFC2068C1693943C1612068C169B14319
:10164000C1612068C1692A691143C16114E029465A
:10165000206801F0C7FC2068C1690122D202114351
:10166000C1612068C16952109143C1612068C1699C
:101670002A6912021143C1610120A077002060771E
:10168000F8BD704710B504460122206801F0F0FB58
:101690000B482168814202D00A48814204D1486C3B
:1016A0000122D20310434864206881684907490F2A
:1016B000062903D00168012211430160002010BDFA
:1016C000002C0140004401407047704770B504464B
:1016D000002C12D024202546203568772068C16868
:1016E000012252039143C160204600F0B0F800206F
:1016F00020646877A877287770BD012070BD704797
:10170000F8B5044621680D68CE6848692A07120FAB
:10171000002A07D1AB0605D5B30603D5204601F054
:1017200087FDF8BD0027002A3FD0C207D20FFF2354
:10173000213333401A4338D0E90705D0F10503D5EA
:10174000216C012211432164690705D5C10703D02B
:10175000216C022211432164A90705D5C10703D0DA
:10176000216C042211432164290705D5C00703D049
:10177000206C082108432064206C0028D1D0A806E2
:1017800004D5B00602D5204601F052FD206C0007BA
:1017900006D5204601F030FD2046FFF7B0FFF8BD2A
:1017A0002046FFF7ACFF2764F8BDE80607D5F00632
:1017B00005D5086848680090204600F010F8280613
:1017C00005D5300603D5204601F0D6FDF8BD6806E4
:1017D000FCD57006FAD5204601F01DFDF8BD704716
:1017E000F8B50446002C06D025462035687F002633
:1017F000002802D005E00120F8BD2E77204600F039
:1018000027F8242068772068C16801277F03B9433F
:10181000C160204601F04AFD206A002802D020461F
:1018200001F0D2FC206801690122D20291430161DA
:10183000206841690822914341612068C1683943A9
:10184000C160266420206877A8770020F8BD704723
:1018500010B5022200211B20FFF78AFB1B20FFF797
:101860007BFB10BD70477047FEE7000010B50221FA
:10187000024800F0B1FBC0B210BD000000040050EF
:1018800010B505200421000700F0A6FBC0B210BD72
:1018900010B50121024800F09FFBC0B210BD00004E
:1018A0000004005010B51021024800F095FBC0B2B2
:1018B00010BD00000014005070B5204C0022102113
:1018C000204600F090FB01221021204600F0ABFBE7
:1018D0001B4C00220121204600F085FB012211460D
:1018E000204600F0A0FB05252D07002204212846F4
:1018F00000F079FB01220421284600F094FB00222D
:101900000221204600F06FFB01220221204600F058
:101910008AFB00221021284600F065FB00221021DE
:10192000284600F080FB00228021284600F05BFB67
:1019300000228021284600F076FB70BD0014005084
:101940000004005030B53249FF244D780846632228
:1019500020302B0001F064FE0C0D0707121A222A1A
:10196000323B434B530D2B49C888012802D9401EF6
:10197000C88030BD01204002C88030BD887E00286C
:1019800002D0401E887630BD8C7630BDC87E0028DF
:1019900002D0401EC87630BDCC7630BD087F00280E
:1019A00002D0401E087730BD0C7730BD487F01283B
:1019B00002D9401E487730BD4A7730BDC87F012824
:1019C00002D9401EC87730BD0820C87730BD817865
:1019D000012902D9491E817030BD827030BDC178A5
:1019E000012902D9491EC17030BDC27030BD0179D4
:1019F000012902D9491E017130BD027130BDC17982
:101A0000012902D9491EC17130BD0921C17130BD02
:101A100024010020EA00002070B5224C224B2279DC
:101A200000255978042824D006DC00280CD0012891
:101A30000CD0022833D114E0082822D01B4A801889
:101A400026D002282BD127E0257128E0012A26D0B4
:101A500001222271491CC8B258700C281FD35A7039
:101A60001DE0022A1BD002202071084600F020F859
:101A700015E0042A13D0042020710846FFF762FF06
:101A80000DE0082A0BD00820207101F0A3FD06E02C
:101A9000084600F00DF802E00846FFF753FF6580A6
:101AA00070BD0000EA00002024010020FEF1FFFFCD
:101AB00030B5314C0025214601222031030001F0D0
:101AC000AFFD0C0F0707121A222A323A424A520F70
:101AD0002A490123C8885B02984202D2401CC88070
:101AE00030BDCA8030BDA07EFF2802D2401CA07647
:101AF00030BDA57630BDE07EFF2802D2401CE076E6
:101B000030BDE57630BD207FFF2802D2401C207713
:101B100030BD257730BD607F632802D2401C6077DE
:101B200030BD627730BDE07F082802D2401CE077EC
:101B300030BDE27730BD8878632802D2401C8870BF
:101B400030BD8A7030BDC878632802D2401CC8708E
:101B500030BDCA7030BD0879632802D2401C0871BC
:101B600030BD0A7130BDC879092802D2401CC87145
:101B700030BDCA7130BD000024010020EA00002001
:101B800070B53E4A1070002151803D4DFF26F5365C
:101B90002B7BFF2813D0040011D06980AC88641C13
:101BA000A4B2AC80B44200D9AE80022B3DD0AB8849
:101BB000082B41D0C82B44D0DC2B48D04EE06C8899
:101BC000641CA4B26C80B44200D96E806C88102C66
:101BD00053D32C4E132C24D2022B02D1EB88AB8092
:101BE0002973AB88C82B06D353780324A4021B198E
:101BF000538029730AE0082B08D32B7B032B0AD0D0
:101C000053780124E4021B1953802973A9806E8044
:101C10002881517022E053780324E4021B19538079
:101C2000F3E72973A9806E8018E0AB88082B15D1E3
:101C3000507003232B7311E0508001232B735070DD
:101C40000CE005235B02C3185380507006E0C823E4
:101C5000AB8007235B02C318538050706B7B8342B9
:101C600005D02B7B002B02D16873A9806980508836
:101C7000002802D00149091D488070BDE6000020FF
:101C80005C010020FF0F000010B5194C60780300C4
:101C900001F0C6FC0C27070A0D101316191C1F2291
:101CA000252700F007FB1CE000F094FB19E000F092
:101CB00017FE16E000F0B8FD13E000F0D3F910E0D5
:101CC00000F05CFD0DE000F0F5FD0AE000F07CFAAC
:101CD00007E000F033FA04E000F0D2FA01E000F08F
:101CE00013FEA07A2074E07A6074207BA07410BD8B
:101CF0002401002010B516484078030001F090FC44
:101D00000C09070A0D101316191C1F22250900F0D3
:101D100015FB10BD00F0E6FB10BD00F0F3FD10BD9B
:101D200000F094FD10BD00F0AFF910BD00F04CFDC7
:101D300010BD00F0D3FD10BD00F05AFA10BD00F048
:101D40000FFA10BD00F0ACFA10BD00F0F1FD10BDAF
:101D50002401002070B504469D4D2878030001F051
:101D60005FFC08052E5780A9D2FDFB2D00F060FF17
:101D70002078002822D0800702D5002000F0E6FE5F
:101D80002078400702D5002000F0F8FE20780007F8
:101D900002D5002000F008FF2078C00602D5002000
:101DA00000F01AFF2078800602D5002000F02AFFFC
:101DB00020780028DED0012000F0B0FEF2E000F034
:101DC00037FF60780028F9D0C00702D0002000F06B
:101DD000A5FE6078400702D5002000F0CFFE6078B5
:101DE000000702D5002000F0DFFE6078C00602D5B3
:101DF000002000F0F1FE6078800602D5002000F09F
:101E000001FF60780028D9D0012000F09FFEC9E0D2
:101E100000F00EFFA0780028D0D0C00702D000202C
:101E200000F07CFEA078800702D5002000F08EFE36
:101E3000A078000702D5002000F0B6FEA078C0060A
:101E400002D5002000F0C8FEA078800602D5002050
:101E500000F0D8FEA078002802D0012000F08EFE0D
:101E6000A0E000F0E5FEE078002822D0C00702D014
:101E7000002000F053FEE078800702D5002000F03B
:101E800065FEE078400702D5002000F077FEE0789C
:101E9000C00602D5002000F09FFEE078800602D543
:101EA000002000F0AFFEE07800287BD0012000F099
:101EB0007BFE77E000F0BCFE2079002872D0C007DE
:101EC00002D0002000F02AFE2079800702D50020F1
:101ED00000F03CFE2079400702D5002000F04EFEC5
:101EE0002079000702D5002000F05EFE20798006F0
:101EF00002D5002000F086FE2079002852D0012073
:101F000000F06AFE4EE000F093FE6079002849D0B0
:101F1000C00702D0002000F001FE6079800702D5E2
:101F2000002000F013FE6079400702D5002000F089
:101F300025FE6079000702D5002000F035FE6079AB
:101F4000C00602D5002000F047FE6079002829D0A5
:101F5000012000F057FE25E003E0FFE7FFF7ACFCAF
:101F600020E0FFF783FC1B4C002824D02088400889
:101F700040002080FFF784FC0221002820D0208828
:101F800088432080FFF784FC042100281CD020888F
:101F900088432080FFF786FC0821002816D020887F
:101FA000884320802878401CC0B22870072801D9B7
:101FB0000020287070BD2088012108432080D9E7C7
:101FC000208808432080DDE72180E3E72180E9E7DE
:101FD000F8000020EA0000200069814301D00020C1
:101FE00070470120704710B5036849434C000C1935
:101FF000A34351430B43036010BD10B5036849432D
:102000004C000C19A34351430B43036010BD4368BC
:102010008B4351430B434360704743688B435143A9
:102020000B434360704710B5C36849434C000C191B
:10203000A34351430B43C36010BD10B5C36849436C
:102040004C000C19A34351430B43C36010BD10B5A2
:10205000836849434C000C19A34351430B438360ED
:1020600010BD000007488178052901D00521817045
:1020700000210170817E8172C17EC172017F017376
:10208000704700002401002070470000F0B52A4A84
:10209000401A13785B1CDBB21370834219DB0021FA
:1020A0001170104620380346877D9C7ADD7A1E7BAE
:1020B000FF223B0001F0B4FA06040E18222C360D64
:1020C00082726D1CEAB2C2720173FF2A01D3012130
:1020D0008175F0BD641EE3B28372C2720173002B7E
:1020E000F7D102218175F0BD8172C272761CF1B206
:1020F0000173FF29F7D303218175F0BD81726D1E35
:10210000E9B2C17202730029F7D104218175F0BDD3
:10211000641CE3B28372C1720273FF2BF7D30521F3
:102120008175F0BD8272C172761EF2B20273002A0E
:10213000F7D18175F0BD000044010020074988787F
:10214000092809D009208870002088750A462032A5
:1021500010700873C8728872704700002401002054
:1021600000B50348C1786320FFF790FF00BD000071
:102170004401002070B5124B124D9A7D5400141981
:102180002E5D9E7264196578DD72A4781C731C8BB9
:10219000641CA4B21C83022C11D300261E831C468F
:1021A00020342578401A6D1CEDB22570854206DB7F
:1021B0002670521CD0B29875072800D99E7570BD44
:1021C00024010020CC3700080848817808290CD069
:1021D000012101700821817000218175018302466F
:1021E000203211700173C172817270472401002086
:1021F00000B5034881786320FFF7BCFF00BD0000F5
:1022000044010020F0B51C4A401A13785B1CDBB275
:10221000137083422EDB002717700020174E1546DF
:10222000203DAB7D2A185C001B199B19917A1B5C21
:10223000994205D0994202D9491E917200E09372E9
:10224000401CC0B20328ECD3A87DAA7A41004118F3
:10225000735C9A420ED18919EA7A4B789A4209D175
:102260002A7B89788A4205D1401CC0B2A875032810
:1022700000D3AF75F0BD000044010020E437000832
:10228000064881780A2908D00A21817000218175C9
:102290000183FF218172C172017370472401002004
:1022A00000B5034801796320FFF7ACFF00BD0000D3
:1022B0004401002070B51F4D0020AA782C46012152
:1022C0002034012A08D0A970A875288320702073B3
:1022D00028632873E872A872EA79002A01D0217372
:1022E00000E02073E878FDF7BAFF1349FDF779FFA6
:1022F00006462863207B00281AD12879FDF7AFFF16
:102300003146FDF731FFFDF7B1FFA8726879FDF79F
:10231000A6FF3146FDF728FFFDF7A8FFE872A87970
:10232000FDF79DFF3146FDF71FFFFDF79FFF287367
:1023300070BD00002401002000007F43F8B5244D4B
:10234000287B012840D12C46203CA67D002E02D0BF
:10235000012E21D11CE02079FDF781FF276B394642
:10236000FDF702FFFDF782FFA0726079FDF777FFAE
:102370003946FDF7F9FEFDF779FFE072A079FDF728
:102380006EFF3946FDF7F0FEFDF770FF207303E0A6
:102390000020A072E0722073208B401C80B220834A
:1023A000022811D300222283E079F02800D3F02004
:1023B0002978FF23491CC9B2181A2970814203D910
:1023C0002A70002E01D0A275F8BD0120A075F8BDBD
:1023D0004401002070B5404D0023A8782C462034DD
:1023E000022809D00220A870AB752B8323702373B9
:1023F0002B632B73EB72AB72287AFEF751FAA07243
:10240000364A5178884227D09678B14203D09170ED
:102410000A21117020E01178491E0906090E117079
:102420001AD15070E17A814216D0E072AB752B83DD
:10243000237023732B632B73EB72AB72052805D1CA
:10244000FC21A9729D21E9729A212973062803D0E3
:102450000621A9702372637201283CD1E879002813
:1024600011D0012121732970BE214843FF21FDF7BE
:1024700041FEC821081AC0B220706178884204D099
:102480006070288301E023732B70E878FDF7E7FE86
:102490001349FDF7A6FE06462863207B00281AD1C3
:1024A0002879FDF7DCFE3146FDF75EFEFDF7DEFE26
:1024B000A8726879FDF7D3FE3146FDF755FEFDF7AA
:1024C000D5FEE872A879FDF7CAFE3146FDF74CFE4D
:1024D000FDF7CCFE287370BD24010020E000002031
:1024E00000007F4370B50020554A0025967A1446B7
:1024F000203C617A330001F093F80719053A696DC1
:1025000071751900107B012810D1208B00280DD087
:10251000401E0004000C208309D005280AD90020A1
:1025200021188D72401CC0B20328F9D370BD1078F9
:10253000208370BD2079FDF792FE256B2946FDF7BB
:1025400013FEFDF793FEA0726079FDF788FE294621
:10255000FDF70AFEFDF78AFEE072A079FDF77FFE27
:102560002946FDF701FEFDF781FE207370BD20298D
:1025700001D8012027E00A46213A1F2A01D802206B
:1025800021E00A46413A1F2A01D803201BE00A46EF
:10259000613A1F2A01D8042015E00A46813A1F2A11
:1025A00001D805200FE00A46A13A1F2A01D80620CB
:1025B00009E00A46C13A1F2A01D8072003E0E139A1
:1025C0001E2900D8082000F043F970BDFF20FFF756
:1025D000D1FD70BDFF20FFF759FD70BDFF20FFF753
:1025E00011FE70BD00F004FA9079012800D110723C
:1025F000107A0128F5D1208B401C80B220830A2854
:102600000BD8507A410040180E490A5CA27240185B
:102610004178E1728078207370BDFF21913188424A
:1026200003D8A572E572257370BD15722583507AA3
:10263000401CC0B250720728F6D9557270BD000018
:1026400044010020CC370008F8B5054614462A8816
:102650000B889A4224D07D20FF27C0012D372449C2
:102660009A4222D9D21A96B28E4205D2304670438F
:10267000FDF740FD401C80B2218881420AD0814292
:1026800002D9491E218005E0BE4201D3208001E02D
:10269000491C21802088B04203D92888801B2880CB
:1026A000F8BD2988081A2880F8BD9A1A96B28E4279
:1026B00005D230467043FDF71DFD401C80B22188D5
:1026C00081420AD0814202D9491E218005E0BE42E2
:1026D00001D3208001E0491C21802088B04203D929
:1026E000288880192880F8BD298808182880F8BD16
:1026F00010270000F8B51B4B1B49187C1B4F4000EE
:10270000095A3980587C1A4A4000105A78809A7CBD
:10271000184C5200A25ABA801B78002B04D0164BDA
:102720005963D8639A63F8BD00256E00F4192046FA
:102730001230831F821D00902146A01DFFF784FFE9
:10274000E088B95B884201D1002020836D1CEDB286
:10275000032DEAD30848F98841633989C16379892F
:102760008163F8BD24010020D038000898010020C2
:10277000D03A0008D03C0008002C014070B5114C44
:10278000A07806281DD00620A0700025A575002081
:1027900021188A7A4A73401CC0B20328F8D301205A
:1027A0002070607FBE2148436321FDF7A3FCC82150
:1027B000081A0449C0B22031087020832573E572DD
:1027C000A57270BD2401002010B5164B188B1A4657
:1027D000203200281AD0401E0004000C18830AD0B2
:1027E00005280BD9002000211C18A172401CC0B282
:1027F0000328F9D30AE01078188307E0002019189D
:102800004C7B8C72401CC0B20328F8D3587FDC216B
:102810004000081AC0B21070198B814200D9188389
:1028200010BD00002401002007488178042901D050
:102830000421817000210170817E8172C17EC1728C
:10284000017F0173704700002401002070470000E1
:1028500010B50024FF221649030000F0E1FE09092B
:102860000625211A16120E0A09008A72CC720C7300
:1028700010BD8A72CA720A7310BD8C72CA720A7352
:1028800010BD8A72CC720A7310BD8A72CA720C7340
:1028900010BDC8208872EB20C8721420087310BDC8
:1028A0008C72CC720A7310BD8C72CA720C7310BD1C
:1028B0002401002000B508498878072805D00720A2
:1028C000887000200873C872887201200870C87F61
:1028D000FFF7BEFF00BD000024010020704700008C
:1028E00007488178032901D00321817000210170FC
:1028F000817E8172C17EC172017F017370470000C9
:102900002401002070470000084988780B280BD06C
:102910000B208870002008830A46203210720122A2
:102920000A700873C8728872704700002401002082
:1029300030B500F05DF82A488179012900D1017293
:10294000274CC379274D0022203C092B13D0017A54
:1029500001290FD1218B491C89B221830A2936D83C
:102960005B1E58001818295CA17240194178E17269
:102970008078207330BD017A012915D0218B002980
:10298000F8D0491E89B22183174B994206D1437A68
:102990005B1CDBB24372072B00D942720029E9D1DC
:1029A000A272E272227330BD10498B885B1C8B804F
:1029B00002727D21C9002183407A41004018295CC0
:1029C000A17240194178E1728078207330BD3229BC
:1029D00003D8A272E272227330BD0272228330BD2C
:1029E00044010020CC370008B6030000E0000020BE
:1029F00004200B49096988430CD0002109480029AB
:102A00000AD04179491CC9B24171022901D301217F
:102A1000817170470121F1E7002141718171704797
:102A200000040050440100207047000010B5FDF77D
:102A3000C5FE16484078030000F0F2FD0C09070AB5
:102A40000D101316191C1F222509FDF74BFF10BD91
:102A5000FDF764FF10BD00F04FF810BDFEF704F85D
:102A600010BDFDF791FE10BDFDF7DCFF10BD00F0BD
:102A70000FF810BDFDF7CEFE10BDFDF7A7FE10BD8F
:102A8000FDF7EAFE10BD00F075FD10BD2401002029
:102A900010B50D482022017811430170817811434F
:102AA000C27801231A43C27002791A4302231943E0
:102AB000817008210A43027142790A434271034836
:102AC000C07F00F059FB10BDF2000020240100205F
:102AD0007047000010B500200549064A43181B68DE
:102AE0008408A4001351001D2C28F7D310BD00004A
:102AF000004000086C01002010B506480121027951
:102B00000A43027142790A4342710348807E00F011
:102B100097FA10BDF20000202401002070B5054690
:102B2000094C012210212046FFF75DFA00221021F6
:102B30002046FFF76CFA002D02D01020A06170BD76
:102B40001020A06270BD00000014005070B5054652
:102B5000094C012211462046FFF745FA00220121C7
:102B60002046FFF754FA002D02D00120A06170BD6D
:102B70000120A06270BD00000004005070B5054641
:102B800005242407012204212046FFF72CFA002205
:102B900004212046FFF73BFA002D02D00420A0615B
:102BA00070BD0420A06270BD70B50546094C0122BD
:102BB00002212046FFF717FA002202212046FFF7E4
:102BC00026FA002D02D00220A06170BD0220A06272
:102BD00070BD00000004005070B5054605242407B0
:102BE000012210212046FFF7FEF900221021204685
:102BF000FFF70DFA002D02D01020A06170BD10204B
:102C0000A06270BD70B5054605242407012280210D
:102C10002046FFF7E8F9002280212046FFF7F7F968
:102C2000002D02D08020A06170BD8020A06270BD08
:102C300070B5204C002210212046FFF7D4F9002265
:102C400010212046FFF7EFF91B4C002201212046FE
:102C5000FFF7C9F9002201212046FFF7E4F9052515
:102C60002D07002204212846FFF7BDF90022042188
:102C70002846FFF7D8F9002202212046FFF7B3F9D2
:102C8000002202212046FFF7CEF90022102128461B
:102C9000FFF7A9F9002210212846FFF7C4F9002206
:102CA00080212846FFF79FF9002280212846FFF760
:102CB000BAF970BD0014005000040050704710B500
:102CC000FEF70AF910BD000007484168074842684E
:102CD0000123120C12045B031A431143416004499F
:102CE000C003886070470000000FFF1F0010024003
:102CF00000ED00E010B51048FEF7A2FB0F490122DD
:102D00000A70C8880023401C80B2C880052801D3FF
:102D1000CB804A704889401C80B24881642809D31E
:102D20004B81CA708889401C80B288810A2801D3EF
:102D30008B810A7110BD0000FC01002014010020ED
:102D400070B533480169C9072DD0C168C907C90FDB
:102D5000002928D00121C94301612E4D2846024691
:102D60006B782032117B007C012B01D100291BD014
:102D7000022B04D1002902D1917A012914D0E97CD7
:102D8000814202D0E87400F097F9297D687C814285
:102D900002D0287500F0C0F9697DA87C814202D07C
:102DA000687500F0A1F970BD1B4C2189491C89B2DE
:102DB00021813229F7D3002121816178884209D00D
:102DC000884202D9491C617001E0491E6170607837
:102DD00000F072F9697CA078814209D0814202D961
:102DE000401CA07001E0401EA070A07800F094F993
:102DF000A97CE0788142D6D0814202D9401CE070A3
:102E000001E0401EE070E07800F06EF970BD000057
:102E1000002C014024010020C400002030B50268CD
:102E2000114CA04204D170251346AB434A681A43A3
:102E30000E4BA04201D0984204D103252D02AA4393
:102E4000CD682A438025AA434D692A4302608A68D7
:102E5000C2620A688262A04201D0984201D1096927
:102E600001630121416130BD002C0140004401405B
:102E700010B5C906C90E01238B40046A9C43046245
:102E8000036A8A401343036210BD0000F0B5026A72
:102E9000520852000262056A436882697024A243A4
:102EA000920892000C681443022295438A682A43D0
:102EB0000F4E104FB04201D0B84206D10825AA43A8
:102EC000CD681543042295432A46B04201D0B8424A
:102ED00008D1FF250135AB436D00AB434D691D4360
:102EE0008B692B4343608461496841630262F0BD92
:102EF000002C014000440140F0B5026A10239A43BF
:102F00000262046A4368826907252D03AA430325E8
:102F10002D02AA430D682D021543202294438A688E
:102F200012012243104EB04207D180271446BC4301
:102F3000CA68120122434024A243B04202D00B4C83
:102F4000A0420AD10124A402A3436400A3434C6914
:102F5000A4001C438B699B0023434360856149683F
:102F600081630262F0BD0000002C0140004401407A
:102F7000F0B5026AFF2301339A430262046A436890
:102F8000C2697025AA43920892000D681543012278
:102F9000520294438A6812022243104EB04207D173
:102FA000C7141446BC43CA68120222430415A24344
:102FB000B04202D00A4CA0420AD101242403A34308
:102FC0006400A3434C6924011C438B691B01234308
:102FD0004360C5614968C1630262F0BD002C0140D5
:102FE0000044014030B5026A01231B039A43026288
:102FF000046A4268C36907252D03AB4303252D02EC
:10300000AB430D682D021D4301235B039C438B687A
:103010001B032343084CA04202D0084CA04205D118
:103020000124A403A2434C69A40122434260C56168
:1030300049680164036230BD002C01400044014036
:1030400070B50446174884422BD864212046FDF70A
:1030500051F80A21FDF74EF80D460A212046FDF7EA
:1030600049F80C460A21FDF745F80B462146002099
:10307000062255430D4A0C4CAA1806256B430C4DED
:103080005B19062569430B4D4D19215C165C3143D4
:103090001E5C31432E5C31432154401C80B2062813
:1030A000F3D370BDE7030000F2000020ED37000805
:1030B000293800086538000810B50A4948600846F4
:1030C00000222038FEF772FA002801D0FDF744FCF8
:1030D000044800212038FEF7D5FA002801D0FDF77A
:1030E0003BFC10BD3C02002010B50A494860084670
:1030F00004222038FEF75AFA002801D0FDF72CFCF4
:10310000044804212038FEF7BDFA002801D0FDF75D
:1031100023FC10BD3C02002010B50A494860084657
:1031200008222038FEF742FA002801D0FDF714FCEF
:10313000044808212038FEF7A5FA002801D0FDF741
:103140000BFC10BD3C02002010B50A49486008463F
:103150000C222038FEF72AFA002801D0FDF7FCFBEC
:10316000044808212038FEF78DFA002801D0FDF729
:10317000F3FB10BD3C02002070B563281CD80A2167
:10318000FCF7B8FF0C460A21FCF7B4FF0A462146BB
:103190000020062462430A4C084B1219062461439E
:1031A000084C0C19195C155C2943255C29431954FA
:1031B000401C80B20628F5D370BD0000F20000204C
:1031C000293800086538000810B5018C490612D569
:1031D00001684A6901231B03446A9A4322434A61F6
:1031E000416A994207D101684A6903235B03806AF7
:1031F0009A4302434A6110BD0168CA68FF23213324
:103200009A43CA60016820304A69520852004A61F4
:1032100020218177704710B50168CA6840239A431E
:10322000CA6020223D210A54FEF71DFB002010BD7C
:1032300070B5014620310A46897F222901D002203B
:1032400070BD012381681B03994202D101690029E5
:103250000DD001684B68416B4C1C44630B70418F6F
:10326000491E0904090C41870BD0002070BD416B39
:1032700003685B68DB05DB0D0B80416B891C4163D8
:10328000EDE70168CC6820239C43CC600168CC68E2
:10329000DD00AC43CC6001684C69640864004C619B
:1032A0009377FEF7DFFA002070BD000070B504468A
:1032B00020680169012252039143E26811430161D0
:1032C000A16820690143606901432068C268294BF5
:1032D0001A400A43C260E169206842690123DB02A7
:1032E0009A430A43426120684169032212029143D2
:1032F000A26911434161E06998421DD1FDF7EEFEDC
:103300006168192249005043FCF7F4FE0546642128
:10331000FCF7F0FE060164214843281AC000323051
:10332000FCF7E8FEF8210140490040077118400F02
:1033300008182168886070BDFDF7D0FE6168192209
:1033400089005043FCF7D6FE05466421FCF7D2FE07
:10335000060164214843281A00013230FCF7CAFEF6
:10336000F021014000077118000F081821688860DB
:1033700070BD0000F3E9FFFF3D21095C212901D068
:1033800002207047012281681203914202D1016933
:1033900000290DD0C16A026809785160C16A491CD0
:1033A000C162418E491E0904090C41860AD013E00E
:1033B000C16A02680988C905C90D5160C16A891CC2
:1033C000C162EEE70168CA6880239A43CA60006858
:1033D000C16840221143C1600020704770B5254884
:1033E00000680168890643D54068234B9881C10570
:1033F000C90FD971C0B298711A78002A38D1002942
:1034000004D1002802D101225A711A715A79002A76
:103410002BD0012929D119790024012902D00229B0
:1034200023D10CE0002803D0CC2805D01C711CE06F
:10343000022018715C8118E00320187115E0598989
:10344000491C89B259810D4AD2888A4207D8951DF4
:103450008D4204D3891A0A4A8918C87005E0C81F2A
:10346000FF38FA3801D15C815C710248FEF748F9F7
:1034700070BD0000B8010020C4000020EA00002058
:103480002401002070B5FFF725FB1A4C20680028A6
:1034900002D0194988420BD10020184A81005358A4
:1034A0006350401CC0B20B28F8D3124800F086F8D5
:1034B00013492078C880134922798A76237ACB76FB
:1034C000257B0D77207C4877207DC8770846267EAF
:1034D00020308670267FC670268C0671A68CC67139
:1034E000208DC0B24870C01E032802D88A72CB72E9
:1034F0000D7370BD6C010020FFFF0000A4380008B0
:10350000EA0000202401002010B50448C1780029F9
:1035100003D00021C170FFF789FA10BD140100200B
:1035200010B506480178002906D000210170044832
:10353000FEF710FCFFF75CFA10BD0000140100203C
:10354000F200002010B50948417800290CD0002174
:103550004170074C2078FEF713FB6088FEF75CFA99
:10356000FEF7C8FBFFF7C6F810BD000014010020ED
:10357000EA00002010B50F482022017811430170A5
:10358000827821210A43C37801210B43C370437918
:103590000B43447808210C4344700A242243827070
:1035A00002790A4302710B4343710348C079FFF764
:1035B000E3FD10BDF20000204401002010B50446D8
:1035C000FDF7E6FBFCF7D2FE2046FCF7E5FEFDF733
:1035D0004BFB10BD10B50F48C1880F4801600F4A62
:1035E000917E4160D17E8160117FC160517F016118
:1035F000D17F4161114620318B788361CB78C361E3
:103600000B790362C979416251788162FFF7D6FF75
:1036100010BD0000EA0000206C0100202401002001
:1036200030B47446641E2578641CAB4200D21D463B
:10363000635D5B00E31830BC184700008307FF227E
:10364000DB0E9A408907090E9940002808DB8308A1
:1036500009489B001818036893430B4303607047A5
:103660000007000F0838830804489B001818C36936
:1036700093430B43C361704700E400E000ED00E0BA
:1036800002E008C8121F08C1002AFAD1704770472B
:10369000002001E001C1121F002AFBD17047000089
:1036A000FDF722FCFCF736FFFF20F530FDF7F6F9B9
:1036B000FCF786FEFCF762FFFDF712F8FDF708F84D
:1036C0006420FFF7F9FC6420FFF726FD6420FFF774
:1036D0000BFD10210C48FCF73CFD38210B48FCF792
:1036E00038FD08210A48FCF734FD06210948FCF79B
:1036F00030FDFFF7C7FEFFF713FFFFF723FFFFF7CC
:1037000003FFFEF7C1FAF6E71401002024010020B0
:10371000EA000020F200002000000000000000008D
:103720000000000000000000000000000000000099
:103730000000000000000000010000000200000086
:103740000300000004000000060000000700000065
:10375000080000000900000000093D0000127A0086
:103760000024F4004086510100366E0100093D003E
:1037700000093D0000093D000000000000000000BD
:103780000000000000000000010000000200000036
:1037900003000000040000001C0FFF1F300FFF1F7C
:1037A000440FFF1F580FFF1F6C0FFF1F1C0FFF1F41
:1037B0001C0FFF1F1C0FFF1F00093D0000127A00A5
:1037C0000024F4004086510100366E01FF00000025
:1037D000FF000000FFC8EB14FFFF00FF00FF00FF29
:1037E000FFFFFFFFFF000000FF000000FF08080AC6
:1037F0000008080008080000000A08000008080A7D
:10380000080800080002080A0000000A000A000870
:10381000000A000A0008080808080000000A080A50
:103820000008080A080A000800101010020202002E
:10383000000000020200101012020000100012022C
:1038400002100000100202101000120002101010EE
:1038500012000200000002020210101012020210F8
:103860001000120202040400040414000400040006
:1038700000042400000410002400040410002400AC
:1038800004000400200004041404200004041400B4
:1038900004000400100424000404140024000404A0
:1038A0001400000001000000000000000000000003
:1038B0000000000001000000010000000100000005
:1038C00001000000010000000100000001000000F4
:1038D0000000040005000600080009000A000B00B3
:1038E0000D000E000F001000120013001400150050
:1038F0001700180019001A001C001D001E001F00F0
:103900002100220023002400250027002800290090
:103910002A002C002D002E002F0031003200330031
:10392000340036003700380039003B003C003D00D1
:103930003E00400041004200430045004600470071
:1039400048004A004B004C004D004F005000510011
:103950005200540055005600570058005A005B00B2
:103960005C005D005F006000610062006400650053
:103970006600670069006A006B006C006E006F00F3
:103980007000710073007400750076007800790093
:103990007A007B007D007E007F0080008200830033
:1039A000840085008700880089008A008C008D00D3
:1039B0008E008F0090009200930094009500970075
:1039C000980099009A009C009D009E009F00A10015
:1039D000A200A300A400A600A700A800A900AB00B5
:1039E000AC00AD00AE00B000B100B200B300B50055
:1039F000B600B700B800BA00BB00BC00BD00BF00F5
:103A0000C000C100C200C300C500C600C700C80096
:103A1000CA00CB00CC00CD00CF00D000D100D20036
:103A2000D400D500D600D700D900DA00DB00DC00D6
:103A3000DE00DF00E000E100E300E400E500E60076
:103A4000E800E900EA00EB00ED00EE00EF00F00016
:103A5000F200F300F400F500F600F800F900FA00B7
:103A6000FB00FD00FE00FF00000102010301040154
:103A700005010701080109010A010C010D010E01F0
:103A80000F01110112011301140116011701180190
:103A900019011B011C011D011E0120012101220130
:103AA000230125012601270128012A012B012C01D0
:103AB0002D012E0130013101320133013501360172
:103AC000370138013A013B013C013D013F01400112
:103AD000000004000C0014001B0023002B00330026
:103AE0003B0043004B0052005A0062006A00720023
:103AF0007A008200890091009900A100A900B1001C
:103B0000B900C000C800D000D800E000E800F00014
:103B1000F800FF0007010F0117011F0127012F0106
:103B200036013E0146014E0156015E0166016D01FE
:103B300075017D0185018D0195019D01A401AC01F7
:103B4000B401BC01C401CC01D401DB01E301EB01F0
:103B5000F301FB0103020B0212021A0222022A02E3
:103B600032023A02420249025102590261026902DA
:103B7000710279028002880290029802A002A802D3
:103B8000B002B702BF02C702CF02D702DF02E702CC
:103B9000EE02F602FE0206030E0316031E032503C1
:103BA0002D0335033D0345034D0355035C036403B7
:103BB0006C0374037C0384038C0393039B03A303B0
:103BC000AB03B303BB03C303CA03D203DA03E203A9
:103BD000EA03F203FA03010409041104190421049D
:103BE0002904310438044004480450045804600493
:103BF00068046F0477047F0487048F0497049F048C
:103C0000A604AE04B604BE04C604CE04D604DE0484
:103C1000E504ED04F504FD0405050D0515051C0579
:103C200024052C0534053C0544054C0553055B056E
:103C300063056B0573057B0583058A0592059A0567
:103C4000A205AA05B205BA05C105C905D105D90560
:103C5000E105E905F105F805000608061006180655
:103C6000200628062F0637063F0647064F0657064A
:103C70005F0666066E0676067E0686068E06960643
:103C80009D06A506AD06B506BD06C506CD06D4063D
:103C9000DC06E406EC06F406FC0604070B07130733
:103CA0001B0723072B0733073B0742074A07520727
:103CB0005A0762076A077207790781078907910720
:103CC0009907A107A907B007B807C007C807D00719
:103CD000000004000C0014001B0023002B00330024
:103CE0003B0043004B0052005A0062006A00720021
:103CF0007A008200890091009900A100A900B1001A
:103D0000B900C000C800D000D800E000E800F00012
:103D1000F800FF0007010F0117011F0127012F0104
:103D200036013E0146014E0156015E0166016D01FC
:103D300075017D0185018D0195019D01A401AC01F5
:103D4000B401BC01C401CC01D401DB01E301EB01EE
:103D5000F301FB0103020B0212021A0222022A02E1
:103D600032023A02420249025102590261026902D8
:103D7000710279028002880290029802A002A802D1
:103D8000B002B702BF02C702CF02D702DF02E702CA
:103D9000EE02F602FE0206030E0316031E032503BF
:103DA0002D0335033D0345034D0355035C036403B5
:103DB0006C0374037C0384038C0393039B03A303AE
:103DC000AB03B303BB03C303CA03D203DA03E203A7
:103DD000EA03F203FA03010409041104190421049B
:103DE0002904310438044004480450045804600491
:103DF00068046F0477047F0487048F0497049F048A
:103E0000A604AE04B604BE04C604CE04D604DE0482
:103E1000E504ED04F504FD0405050D0515051C0577
:103E200024052C0534053C0544054C0553055B056C
:103E300063056B0573057B0583058A0592059A0565
:103E4000A205AA05B205BA05C105C905D105D9055E
:103E5000E105E905F105F805000608061006180653
:103E6000200628062F0637063F0647064F06570648
:103E70005F0666066E0676067E0686068E06960641
:103E80009D06A506AD06B506BD06C506CD06D4063B
:103E9000DC06E406EC06F406FC0604070B07130731
:103EA0001B0723072B0733073B0742074A07520725
:103EB0005A0762076A07720779078107890791071E
:103EC0009907A107A907B007B807C007C807D00717
:103ED000F03E000800000020FC00000080360008D2
:103EE000EC3F0008FC0000205C0500009036000854
:103EF00000000000000000000000000000000000C2
:103F000000000000000000000000000000000000B1
:103F100000000000000000000000000000000000A1
:103F20000000000000000000000000000000000091
:103F30000000000000000000000000000000000081
:103F40000000000000000000000000000000000071
:103F50000000000000000000000000000000000061
:103F60000000000000000000000000000000000051
:103F70000000000000000000000000000000000041
:103F80000000000000000000000000000000000031
:103F90000000000000000000000000000000000021
:103FA0000000000000000000000000000000000011
:103FB00000127A0000000000000000000000000075
:103FC00000000000040000000100000000000000EC
:103FD00000000000000000000000000000000000E1
:0C3FE000000000000000000000000000D5
:04000005080000C12E
:00000001FF
